:020000041000EA
:1000000000B5324B212058609868022188439860DF
:10001000D860186158612E4B002199600221596106
:100020000121F02299502B49196001219960352056
:1000300000F044F80222904214D00621196600F024
:1000400034F8196E01211966002018661A6600F04E
:100050002CF8196E196E196E052000F02FF8012189
:100060000842F9D1002199601B49196000215960AB
:100070001A491B48016001219960EB211966A021F2
:10008000196600F012F800219960164914480160C1
:100090000121996001BC002800D000471248134993
:1000A000086003C880F30888084703B5996A0420EC
:1000B0000142FBD001200142F8D103BD02B5186610
:1000C0001866FFF7F2FF186E186E02BD00000240BE
:1000D000000000180000070000035F00212200005C
:1000E000F4000018222000A00001001008ED00E03C
:1000F00000000000000000000000000074B24E7A12
:1001000000200420F7010010C3010010C5010010F9
:10011000C1010010C1010010C1010010C101001097
:10012000C1010010C1010010C1010010C701001081
:10013000C1010010C1010010C9010010CB01001065
:10014000CD010010CD010010CD010010CD01001037
:10015000CD010010CD010010CD010010CD01001027
:10016000CD010010CD010010CD010010CD01001017
:10017000CD010010CD010010CD010010CD01001007
:10018000CD010010CD010010CD010010CD010010F7
:10019000CD010010CD010010CD010010CD010010E7
:1001A000CD010010CD010010CD010010CD010010D7
:1001B000CD010010CD010010CD010010CD010010C7
:1001C00000BE00BE00BE00BE00BE00BEEFF3058054
:1001D000103800BEF2EB8871D8020010F80200104F
:1001E0003402001090A31AE700202249086006C8D4
:1001F00081F30888104720480068002835D10DA4F5
:100200000ECC002902D000F012F8F9E71B491C4A75
:10021000002000E001C19142FCD11A4988471A49E7
:1002200088471A49884700BEFDE701C901C29A42C2
:10023000FBD37047F8020010C0000020B0990020E6
:10024000E89B0010B0990020A8B00020E0B2001098
:100250000000042000000420E0B200100010042080
:1002600000100420000000007047094800F014F856
:100270000047000008ED00E0000000D0A8B000201A
:1002800034BE0020AD37002089050020C33800208F
:10029000575600000000000001B40248844601BC2B
:1002A000604700BFF339002005005250DE65F46856
:1002B000E0B20010060052505422A29DC0AC0020B3
:1002C00006005250861C0302CCAC0020060052509F
:0802D000ABB36053E8AC002061
:1002D800A8020010B4020010C002001010AD0020E7
:1002E800CC0200101CAD002028AD002064AD002019
:1002F800F8B5C04606480749091A8B10C90FC9182E
:1003080010B5491003D0044B002B00D0984710BDFE
:10031800A8B00020A8B0002000000000054B10B5D0
:10032800002B03D00449054800E000BFFFF7E2FFB7
:1003380010BDC04600000000C0BB0020B0990020DE
:1003480080B582B000AF7860D0231B067A685A6205
:10035800C046BD4602B080BD80B582B000AF7860AF
:10036800D0231B067A689A62C046BD4602B080BD9B
:1003780080B584B000AF78600A00FB1C1A700122B7
:100388007B689A401300FB60FB1C1B78002B04D091
:10039800FB681800FFF7D4FF03E0FB681800FFF7BD
:1003A800DBFFC046BD4604B080BD000080B586B006
:1003B80000AF78600A00FB1C1A700C23FB1810228F
:1003C800BA1814217918786802F014FE031E07D0B1
:1003D8007B693969FA68180002F0BCFD01230AE05C
:1003E800FB1C1B78002B05D07A68054B1100180000
:1003F80003F088FB00231800BD4606B080BDC04648
:1004080028AB002080B582B000AF7860C046BD46FA
:1004180002B080BD80B582B000AF7860C046BD46EE
:1004280002B080BD80B584B000AFF860B9607A6072
:10043800FB68DB68064A1A40BB681A437B681B05E1
:100448001A43FB68DA60C046BD4604B080BDC046AA
:10045800E0FF0FFC80B582B000AF786039607B6840
:10046800DB68054A1A403B68DB031A437B68DA609D
:10047800C046BD4602B080BDFF7FF0FF80B582B0A8
:1004880000AF786008001100BB1C021C1A807B1C9E
:100498000A1C1A707B1C1B781A02BB1C1B881B04C5
:1004A8001A437B681A60C046BD4602B080BD000092
:1004B80080B584B000AFF860B9607A60FB685B68AB
:1004C800064A1A40BB68DB011A437B681B031A43C0
:1004D800FB685A60C046BD4604B080BD7F00FEFF81
:1004E80080B582B000AF786039607B685B68054A88
:1004F8001A403B681B061A437B685A60C046BD46D3
:1005080002B080BDFFFFFFE090B585B000AFF86096
:10051800080011007B600B243B19021C1A700A2387
:10052800FB180A1C1A70FB689B68104A1A403B1992
:100538001B78002B02D08023DB0200E000231A4343
:100548000A23FB181B78002B02D080235B0200E0F3
:1005580000231A437B681905F8235B040B401A43F0
:10056800FB689A60C046BD4605B090BDFFFF0AFE15
:1005780090B585B000AFF860080011007B600B24CF
:100588003B19021C1A700A23FB180A1C1A70FB6814
:100598009B68104A1A403B191B78002B02D0802315
:1005A8001B0300E000231A430A23FB181B78002BC7
:1005B80002D080239B0200E000231A437B6859067F
:1005C800F8239B050B401A43FB689A60C046BD465A
:1005D80005B090BDFFFFF5C190B587B000AF78605A
:1005E80008243B19180010231A00002103F0CAFE42
:1005F8003B19002201211800FFF740FF3B191F2279
:1006080000211800FFF754FF381920230022012188
:10061800FFF77AFF3819202300220121FFF7A8FFEE
:100628007B683A1913CA13C312681A607868BD4602
:1006380007B090BD80B582B000AF786039607B6844
:100648001800FFF7E7FE7B68074A934201D10623AB
:1006580000E007233A681900100002F0A5FDC04623
:10066800BD4602B080BDC0460000205080B584B0B1
:1006780000AFF860B960FB1D1A70FB681800FFF73F
:10068800C9FEBB681800FFF7BDFEFB681B680121A7
:10069800BA6891400A00D2431A40FB1D1B78190022
:1006A800BB6899400B001A43FB681A60C046BD46F8
:1006B80004B080BD90B587B000AF78603960082479
:1006C8003B191800FFF788FF3B681D331A0039688B
:1006D8003B191800FFF7ECFE7B683A1913CA13C3DD
:1006E80012681A607868BD4607B090BD80B586B0BC
:1006F80000AF00237B611A4B1A4A1900100009F059
:1007080045F903003B613B003A6911001800FFF707
:10071800D1FF3B0000211800FFF79CFE3B00182288
:1007280000211800FFF77EFE0F4B79690D48002263
:1007380009F056F93B001B211800FFF7D1FE3800DD
:10074800082300220021FFF7DFFE3B003A697969A0
:10075800044809F0C7F9C046BD4606B080BDC0468A
:1007680098AB002000002050FFFFFF0080B582B04A
:1007780000AF00237B6008E07B680E4A1900100078
:10078800FFF758FF7B6801337B607B68172BF3DD2D
:10079800084B1B211800FFF74DFFFFF7A7FF054B7C
:1007A800012200211800FFF761FFC046BD4602B0D4
:1007B80080BDC0460000205090B587B000AF03F060
:1007C800F7FF00237B610BE07B69180002F022FD34
:1007D8007B690621180002F0E7FC7B6901337B6125
:1007E8007B690F2BF0DD10233B610BE03B691800A0
:1007F80002F010FD3B6900211800FFF7B9FD3B69C5
:1008080001333B613B69172BF0DD134BFB60FB6841
:100818000B22BC1800211800FFF7C8FD0300237045
:10082800182002F0F7FC00211820FFF7A1FD1A207C
:1008380002F0F0FC00211A20FFF79AFD1B2002F0BD
:10084800E9FC00211B20FFF793FDFFF78FFF002332
:100858007B60C046FDE7C046100F040080B584B039
:1008680000AF786039603B68FB60FB68054A9446D6
:1008780063449B001A007B681A60C046BD4604B0FA
:1008880080BDC0464000003480B582B000AF3860FB
:1008980079603A687B6810001900BD4602B080BDD7
:1008A80080B584B000AFF8603A607B60F9683A6858
:1008B8007B680A604B60C046BD4604B080BD80B509
:1008C80082B000AF00F09AFF02000B003900080068
:1008D800FFF7E6FF3A687B6810001900BD4602B0D2
:1008E80080BD0000B0B58AB000AFB860F9607A602A
:1008F800BA68FB6810001900FFF7C6FF02000B007A
:10090800BA61FB617B681C0000231D00FA2292007B
:1009180000232000290003F097FC02000B001000C0
:100928001900BA69FB6912184B413A627B623A6A4C
:100938007B6A002B04DA01225242084B3A627B623E
:100948003A6A7B6A102179180800FFF7A9FF3A690B
:100958007B6910001900BD460AB0B0BDFFFFFF7FDC
:1009680080B582B000AF7860FFF7A9FF7B681A00F6
:10097800FFF7B8FF02000B0010001900BD4602B0D7
:1009880080BD90B583B000AF78607C6801F0F2FA62
:10099800030019002000FFF761FF7B68FF221A712E
:1009A800BFF35F8FC046C046C046BD4603B090BD8A
:1009B80090B583B000AF78607C6801F0DBFA030083
:1009C80019002000FFF74AFF7B68FF221A717B6835
:1009D80000225A71BFF35F8FC046C046C046BD466D
:1009E80003B090BD80B582B000AF7860012001F0FF
:1009F800D9FA03001A007B681100180000F004F807
:100A0800C046BD4602B080BD80B584B000AF7860F6
:100A180039603B68FB60FB68074A944663449B0067
:100A28001A007B681A60BFF35F8FC046C046C04695
:100A3800BD4604B080BDC0464000003480B582B0D9
:100A480000AF386079603A687B6810001900BD46CD
:100A580002B080BD80B584B000AFF8603A607B60BA
:100A6800F9683A687B680A604B60C046BD4604B0C6
:100A780080BD0000B0B586B000AF386079603A68D4
:100A88007B6810001900FFF7D9FF02000B003A61DC
:100A98007B617B691C0000231D002300FB600D4B5C
:100AA8005B6ABB60BA68FB689A420AD3094B9A6AC8
:100AB8003B699A4203D2BA68FB689A4201D0012383
:100AC80000E000231A1C01231340DBB21800BD46C6
:100AD80006B0B0BD0040054080B582B000AF00F060
:100AE8008DFE02000B0039000800FFF7B3FF3A68DB
:100AF8007B6810001900BD4602B080BD80B58AB081
:100B080000AFB860F9603A607B60BA68FB681000B3
:100B18001900FFF793FF02000B00BA61FB61B86987
:100B2800F9693A687B6812184B413A627B623A6A03
:100B38007B6A002B04DA01225242084B3A627B623C
:100B48003A6A7B6A102179180800FFF783FF3A692F
:100B58007B6910001900BD460AB080BDFFFFFF7F0A
:100B6800B0B584B000AFB860F9603A607B603A68AD
:100B78007B6810001900FFF761FF04000D00BA68D8
:100B8800FB6810001900FFF759FF02000B00A41AB8
:100B98009D4122002B0010001900BD4604B0B0BDD5
:100BA80080B588B004AFB860F9607A603B6000F047
:100BB8000BFABA68FB681821791809780291396824
:100BC80001917968009100F01FFC03001800BD46F0
:100BD80004B080BD80B582B000AF786000F0F4F951
:100BE80002007B681900100000F0C9FC030018001F
:100BF800BD4602B080BD80B582B000AF78600A0003
:100C0800FB1C1A707B681968FB1C1A7813005B00C0
:100C18009B18033BCB181800BD4602B080BD80B5B9
:100C280084B000AF786008001100FB1C021C1A7029
:100C3800BB1C0A1C1A70FB1C1A787B681100180070
:100C4800FFF7D9FF0300FB60BB1C1A787B68110013
:100C58001800FFF7D0FF0300BB60BB68FA1C1278CE
:100C68009A70FB681B78002B04D1FB68BA1C1278B9
:100C78001A7007E0FB681A78BB685A70FB68BA1CE0
:100C880012781A70C046BD4604B080BD90B583B0D6
:100C980000AF786008001100FB1C021C1A70BB1C16
:100CA8000A1C1A70FB1C1B78002B02D1BB1C1B787A
:100CB80027E0BB1C1B78002B02D1FB1C1B7820E013
:100CC8007B685C687B689868BB1C1A78FB1C1B787F
:100CD8001900A047031E0AD0BB1C1A78FB1C197800
:100CE8007B681800FFF79BFFFB1C1B7809E0FB1CC7
:100CF8001A78BB1C19787B681800FFF790FFBB1C9B
:100D08001B781800BD4603B090BD80B584B000AF15
:100D180078607B689B7B002B01D1002326E00F21A4
:100D28007B187A68927B1A707B181A787B68110096
:100D38001800FFF760FF0300BB60BB685A787B6848
:100D48009A737B689B7B002B02D17B680022DA7345
:100D5800BB6800229A70BB689A78BB685A70BB68F7
:100D68005A78BB681A700F23FB181B781800BD4609
:100D780004B080BD80B584B000AF78600A00FB1C69
:100D88001A70FB1C1A787B6811001800FFF733FFF4
:100D98000300FB60FB6800229A70FB689A78FB6886
:100DA8005A70FB685A78FB681A707B68597BFB1C81
:100DB8001A787B681800FFF769FF03001A007B6840
:100DC8005A737B685B7B1800BD4604B080BD80B554
:100DD80082B000AF78607B685B7B1800BD4602B0CC
:100DE80080BD80B582B000AF78600A00FB1C1A7025
:100DF8007B685B7BFA1C12789A420AD0FB1C1A7833
:100E08007B6811001800FFF7F6FE03009B78002BA3
:100E180001D0012300E000231A1C01231340DBB298
:100E28001800BD4602B080BD80B582B000AF7860C2
:100E38000A00FB1C1A707B68DB7B002B0AD07B68DE
:100E4800DA7B7B6811001800FFF7D5FE0200FB1C57
:100E58001B7853707B689B7B002B03D17B68FA1C43
:100E680012789A737B68FA1C1278DA73C046BD460A
:100E780002B080BD80B500AF034B5B685A1E93413A
:100E8800DBB21800BD4680BDB0AF002080B582B08F
:100E980000AF78600A00FB1C1A707B689A68FB1C1C
:100EA8001B7804498C4663441B01D3181800BD46BF
:100EB80002B080BDFFFFFF0F80B582B000AF786041
:100EC8000A00FB1C1A707B68DA68FB1C1B78013B64
:100ED800D3181800BD4602B080BDB0B584B000AFCD
:100EE800786008001100FB1C021C1A70BB1C0A1C4D
:100EF8001A707B68FB60FB1C1A78FB6811001800ED
:100F0800FFF7C4FF03001A685B6810001900FFF7B9
:100F180095FD04000D00BB1C1A78FB681100180031
:100F2800FFF7B4FF03001A685B6810001900FFF7A9
:100F380085FD02000B000121AB4204D801D1A24279
:100F480001D80023191CCBB21800BD4604B0B0BDAF
:100F580080B582B000AF0200FB1D1A70BB1D0A1CD1
:100F68001A70FB1D1B781A02BB1D1B78134318004F
:100F7800BD4602B080BD000080B500AFFFF77AFF24
:100F880003001A0001235340DBB2002B0ED00B4B99
:100F980018680A4B0A4A102101F016FE032000F0D7
:100FA80017FC064B0321180000F0FAF9054B0A213B
:100FB8001800FFF753FCC046BD4680BDB0AF002007
:100FC800AB0C0020FCBD002080B500AF014B180021
:100FD800BD4680BDB0AF0020F0B589B000AFF86065
:100FE8003A607B60382208215318DB191B78002BE4
:100FF80006D01F23FB185218D21912781A7008E06D
:10100800FB681B681F22BC181800FFF77EFE030050
:1010180023701F257B191B78002B4BD07B191A785E
:10102800FB6811001800FFF731FF0300BB61B969C5
:101038003A687B680A604B60BB69BA6B9A60BB69A7
:10104800FA6BDA60FB681A687B191B7819001000C4
:10105800FFF790FE03001A007B191B78934229D1F1
:10106800FB681B7D19001726BC193A687B680800C5
:1010780000F036FD03002370BB191B78002B11D03C
:101088003C2308229B18DB191B7801225340DBB252
:10109800002B07D0FB681A687B191B781900100011
:1010A80001F0CEFEBB6C002B04D0BB6C1722BA1823
:1010B80012781A701F23FB181B781800BD4609B058
:1010C800F0BD0000B0B5A8B006AF7860B34B7A6841
:1010D8009200D358FB66FFF7FFFC02000B003A664C
:1010E8007B6600238022BA18136000220023BA67A7
:1010F800FB6700237B678723FB1800221A70FB6EAF
:101108005B687B64EFF3108372B63B643B6CFB63F4
:101118007B6CBB63C046BB6B1B685A425341DBB256
:10112800002BF8D1BFF35F8FC046C046C046FB6BAB
:10113800FB65FB6E1B685B257C191800FFF747FEF3
:10114800030023707B191B78002B53D07B191A7866
:10115800FB6E11001800FFF799FE03007B657B6D9D
:101168001A685B68386E796EFFF7FAFC02000B00AC
:10117800002B32DC01D1002A2FD1FB6E1B685325CE
:101188007C190021180001F039FE030023707B6DE3
:101198001A685B68BA67FB677B6D9B688022BA1820
:1011A80013607B6DDB687B675B23FB181A78FB6E2B
:1011B80011001800FFF780FE020073217B181278D7
:1011C8001A707B191A787B181B7811001800FFF722
:1011D800BFFE0200FB6E1A610CE07B6D1A685B684B
:1011E8007968080000F07CFC031E03D08723FB18F5
:1011F80001221A70FB6E5B687B63FB6D3B637B6B44
:10120800FB62BFF35F8FC046C046FB6A00221A60CC
:10121800C0463B6BBB62BB6A83F31088C046C046BE
:1012280080243B191B68002B00D1ACE05B23FB1822
:101238001A787323FB181B7811001800FFF788FE33
:101248007A6F3B191B681100984702000B00BA64BB
:10125800FB64FB6E5B687B62EFF3108372B63B62E4
:101268003B6AFB617B6ABB61C046BB691B685A422B
:101278005341DBB2002BF8D1BFF35F8FC046C046A5
:10128800C046FB69FB65FB6C002B23DAFB6E1B6910
:10129800002B1FD0BA6CFB6C00200021801A9941EA
:1012A80002000B00B86FF96FFFF728FC02000B0073
:1012B800F86E00210491012103915B2179180978C6
:1012C8000291796F01918021791809680091FFF7DF
:1012D80083FE3BE0FB6C002B05DCFB6C002B20D174
:1012E800BB6C002B1DD0FB6E1B69002B19D0FFF7C0
:1012F800F3FBBA6CFB6CFFF701FC02000B00F86E05
:1013080000210491012103915B2179180978029148
:10131800796F01918021791809680091FFF75CFEC7
:1013280014E0FB6E1A685B243B191B781900100047
:10133800FFF77AFD3B191A78FB6E11001800FFF7CA
:10134800BBFD03001A780132D2B21A70FB6E00227C
:101358001A61FB6E5B687B61FB6D3B617B69FB60BF
:10136800BFF35F8FC046C046FB6800221A60C046C4
:101378003B69BB60BB6883F31088C046C0468723BF
:10138800FB1801221A708723FB181B78002B00D04A
:10139800A1E6C046C046BD4622B0B0BDE0BB0020B5
:1013A80080B584B000AF786039603B68180000F001
:1013B80065FC124A3B681100180000F0F7FA00F0CB
:1013C800D9FD0300FB60FB680D4A944663449B000B
:1013D8001A007B685A603B68DAB27B681A75D023BA
:1013E8001B061B68DAB27B685A75064B3A6892008E
:1013F8007968D150C046BD4604B080BD950E002026
:1014080040000034E0BB0020B0B59AB006AFF860E9
:101418003A607B601723FB1800221A704B23FB18D5
:1014280000221A70FB685B687B63EFF3108372B667
:101438003B633B6BFB627B6BBB62C046BB6A1B6852
:101448005A425341DBB2002BF8D1BFF35F8FC0463D
:10145800C046C046FB6A7B6443257C193A687B68B2
:10146800F86817217918049100210391002102914D
:10147800796E0191396E0091FFF7AEFD030023707C
:101488007B191B78002B0BD07B191A78FB6811008D
:101498001800FFF711FD02004B23FB1812781A7091
:1014A800FB685B687B627B6C3B627B6AFB61BFF3BA
:1014B8005F8FC046C046FB6900221A60C0463B6A7F
:1014C800BB61BB6983F31088C046C0464323FB1841
:1014D8001B78002B02D101235B424CE01723FB1839
:1014E8001B78002B0BD14323FB181A784B23FB18CE
:1014F8001B7811001800FFF72BFD030000E0002304
:10150800FB641723FB181B78002B33D06823FB18C8
:101518001B78002B2ED0796EFA6C3B6E1000984722
:1015280002000B00BA63FB63BB6BFA6B134302D177
:101538000023FB641EE0FB6B002B10DABA6BFB6B1D
:1015480000200021801A994102000B003868796850
:10155800FFF7D4FA02000B003A607B605EE7FFF702
:10156800BBFABA6BFB6BFFF7C9FA02000B003A60D3
:101578007B6053E7FB6C1800BD4614B0B0BDB0B536
:101588008EB000AF786039603B68002B01D1002332
:101598006BE03723FB1800221A707B685B68BB621C
:1015A800EFF3108372B67B627B6A3B62BB6AFB61B6
:1015B800C046FB691B685A425341DBB2002BF8D185
:1015C800BFF35F8FC046C046C0463B6A3B632F25CA
:1015D8007B193A681A707B681A687B191B7819009E
:1015E8001000FFF7FEFB031E1ED03B681A0A2E24CC
:1015F8003B191A707B191A787B6811001800FFF7DD
:101608005BFC03001B783A1912789A4214D17B6864
:101618001A683723FC187B191B781900100001F091
:101628000FFC0300237007E07B681B693A689A4245
:1016380002D17B6800221A617B685B68BB613B6BE7
:101648007B61BB693B61BFF35F8FC046C0463B69A6
:1016580000221A60C0467B69FB60FB6883F3108830
:10166800C046C0463723FB181B781800BD460EB08D
:10167800B0BD80B582B000AF78607B685B7D180034
:10168800BD4602B080BD000080B58CB000AF786068
:1016980039601C4B1B68BB61EFF3108372B67B612A
:1016A8007B693B61BB69FB60C046FB681B685A42AB
:1016B8005341DBB2002BF8D1BFF35F8FC046C04661
:1016C800C0463B69FB620F4B1B68BB62FB6A7B62CF
:1016D800BB6A3B62BFF35F8FC046C0463B6A0022CD
:1016E8001A60C0467B6AFB61FB6983F31088C046B9
:1016F800C04640BFC0460022002310001900BD4666
:101708000CB080BDFCBD002080B586B002AF38604B
:101718007960EFF30583BB60BB68002B08D0C04637
:101728003A687B6810001900FFF7A4F9030022E06B
:10173800134A38687968002300930023FFF730FACA
:101748000300FB60FB68002B08DCC0463A687B6836
:1017580010001900FFF78EF903000CE020BFC04607
:10176800FB681800FFF736FA3A687B681000190022
:10177800FFF780F903001800BD4604B080BDC046DD
:101788005914002080B582B000AF386079603A689B
:101798007B6810001900BD4602B080BD80B582B0DC
:1017A80000AF7860C046BD4602B080BD80B582B04B
:1017B80000AF78607B681F221A40044B01219140DA
:1017C8000A001A60C046BD4602B080BD80E200E053
:1017D80080B582B000AF78607B681800FFF7DEFF45
:1017E800044A7968044B180000F019FBC046BD464E
:1017F80002B080BDA0AB00202CBE0020F0B587B0A1
:1018080000AF154E766A7E61134EB66A3E61124E7F
:10181800766AFE607E69B446FE68B44502D0FE680A
:101828007E61F1E7C0467E693E6000267E603E68C4
:101838003300002632003E693000002631001600D1
:10184800064334000B431D0022002B001000190032
:10185800BD4607B0F0BDC0460040054080B582B027
:1018680000AF78607B681800BD4602B080BD0000FC
:1018780080B590B000AFEFF305833B613B69103B47
:10188800BB63BB6B1800FFF789FF0023FB630A23C8
:101898007B617B693F4A944663449B007B637B6B17
:1018A8007B62EFF3108372B63B623B6AFB617B6A33
:1018B800BB61C046BB691B685A425341DBB2002B6F
:1018C800F8D1BFF35F8FC046C046C046FB693B6393
:1018D800314B0121BA6B91400A005A630122BB6B5C
:1018E8009A4013002D4AFA62BB62FB6AC022920139
:1018F8001343BA6A1A60C046294B1B781A00BB6B9F
:10190800DA4013000122134024D0234B5A6A254B96
:10191800B96B8900CB589A4212D3234BBA6B920009
:10192800D358FB630122BB6B9A401300DBB2DB4345
:10193800DBB21B4A12781340DAB2194B1A7009E06D
:10194800154A1549BB6B04339B009A58BB6B04338B
:101958009B005A507B6BFB603B6BBB60FB687B60FA
:10196800BFF35F8FC046C0467B6800221A60C0463E
:10197800BB683B603B6883F31088C046C046FB6B7E
:10198800002B03D0BA6BFB6B10009847C046BD46CE
:1019980010B080BD40000034004005403C40054088
:1019A80031BE002008BE0020FCB5002080B590B0F4
:1019B80000AF786039607B681800FFF7EFFE7B683E
:1019C8001800FFF74BFF0300FB630A233B623B6AE7
:1019D8003E4A944663449B00BB63BB6B3B63EFF397
:1019E800108372B6FB62FB6ABB623B6B7B62C046CC
:1019F8007B6A1B685A425341DBB2002BF8D1BFF314
:101A08005F8FC046C046C046BB6A7B633B68002BFD
:101A180026D0FB6B180000F0EDFB02002C4B9A421D
:101A280018D02B4AFB6B1100180000F0F7FBFB6B7A
:101A38000121180000F046FB01227B689A40130040
:101A4800244AFA61BB61FB69802292011343BA6997
:101A58001A60C046204B7A6892003968D1501CE061
:101A68001D4B7A6892000021D15001227B689A4070
:101A78001300DBB2DB43DBB2184A12781340DAB248
:101A8800164B1A70124AFB6B1100180000F0F4FD97
:101A9800FB6B0021180000F015FBBB6B7B617B6BB7
:101AA8003B617B69FB60BFF35F8FC046C046FB6844
:101AB80000221A60C0463B69BB60BB6883F310888C
:101AC800C046C046C046BD4610B080BD4000003488
:101AD8004116002038400540FCB5002031BE0020EA
:101AE800B0B596B000AFF8603A607B60FFF786FE4D
:101AF80002000B00BA64FB643A687B6810001900A6
:101B0800FFF740FE02000B003A647B647A6CFB6CC2
:101B18009A420CD87A6CFB6C9A4203D13A6CBB6C33
:101B28009A4204D85723FB1801221A7096E05723CB
:101B3800FB1800221A700A233B623B6A4B4A944600
:101B480063449B00FB63FB6B3B63EFF3108372B64C
:101B5800FB62FB6ABB623B6B7B62C0467B6A1B68AD
:101B68005A425341DBB2002BF8D1BFF35F8FC04616
:101B7800C046C046BB6ABB633723FB183C4A127891
:101B88001A700122FB689A401300DAB2384B1B78AE
:101B98001343DAB2364B1A70364B0121FA6891407A
:101BA8000A005A6333493A6CFB6804339B005A5065
:101BB8007B6C1C0000231D0021002F4BFA6892004B
:101BC800D1502C4B1B6A0121FA6891400A0013403E
:101BD8002FD0FFF713FE02000B00796C994228D82A
:101BE800796C994202D1396C914222D85723FB185B
:101BF80001221A701E4B1B7837243A1912789A4220
:101C080017D01C4B0121FA6891400A001A62194B3F
:101C18000121FA6891400A005A63FB681800FFF72F
:101C28001DFE03001800FFF7C1FD114B3A19127889
:101C38001A70FB6BFB61BB6BBB61FB697B61BFF31C
:101C48005F8FC046C0467B6900221A60C046BB69E8
:101C58003B613B6983F31088C046C0465723FB1895
:101C68001B781800BD4616B0B0BDC0464000003411
:101C780031BE00200040054008BE002080B58EB06F
:101C880000AF78607B681800FFF788FD0A23FB60C7
:101C9800FB68254A944663449B007B637B6BFB612E
:101CA800EFF3108372B6BB61BB697B61FB693B6173
:101CB800C0463B691B685A425341DBB2002BF8D13E
:101CC800BFF35F8FC046C046C0467B693B63174B76
:101CD80001217A6891400A001A6201227B689A40C1
:101CE8001300DBB2DB43DBB2114A12781340DAB2DD
:101CF8000F4B1A707B6BFB623B6BBB62FB6A7B62B0
:101D0800BFF35F8FC046C0467B6A00221A60C04698
:101D1800BB6A3B623B6A83F31088C046C046C04634
:101D2800BD460EB080BDC0464000003400400540AE
:101D380031BE002080B500AF044B1B68022213405F
:101D48005A1E9341DBB21800BD4680BD00C0064054
:101D580080B586B000AF0B237B607B680F4A944642
:101D680063449B007B61EFF3108372B63B613B6970
:101D7800FB607B69BB60C046BB681B685A42534125
:101D8800DBB2002BF8D1BFF35F8FC046C046C04618
:101D9800FB681800BD4606B080BDC0464000003450
:101DA80080B588B000AF78600B23FB60FB680E4AF3
:101DB800944663449B00FB617B68BB61FB697B6164
:101DC800BFF35F8FC046C0467B6900221A60C046D9
:101DD800BB693B613B6983F31088C046C046C04677
:101DE800BD4608B080BDC0464000003480B582B012
:101DF80000AF786039603B68DB087A68D3181B78D5
:101E080019003B680722134001229A4013000B4037
:101E18005A1E9341DBB21800BD4602B080BD80B5A2
:101E280086B000AFF860B9607A60FFF791FF0300F1
:101E38007B61BA68FB6811001800FFF7D7FF031E23
:101E480005D0BA687B681100180001F05BFEBB681A
:101E5800DB08FA68D3181978BB68072213400122F7
:101E68009A401300DAB2BB68DB08F868C3180A4363
:101E7800D2B21A707B691800FFF792FFC046BD46C0
:101E880006B080BD80B588B000AFF8607A603B606E
:101E98000B23FB180A1C1A70FFF75AFF03007B611B
:101EA80001235B42FB617B68BB6125E0BA69FB6883
:101EB80011001800FFF79AFF03001A00012353408E
:101EC800DBB2002B15D0BB69DB08FA68D318197888
:101ED800BB690722134001229A401300DAB2BB699A
:101EE800DB08F868C3180A43D2B21A70BB69FB61F1
:101EF80006E0BB690133BB61BA693B689A42D5D930
:101F08007B691800FFF74CFFFB69002B08DA0B23ED
:101F1800FB181B78002B03D0BB6A180001F0F2FDF8
:101F2800FB691800BD4608B080BD000080B584B0CC
:101F380000AF0023FB6012E0FB687B607B680C4A03
:101F4800944663449B00BB60BFF35F8FC046C046A6
:101F5800BB6800221A60C046FB680133FB60FB685F
:101F68001F2BE9D9C046C046BD4604B080BDC04657
:101F78004000003480B582B000AF094B1B785A1C72
:101F8800D1B2074A11707B60054B1B78172B02D919
:101F9800034B10221A707B681800BD4602B080BD42
:101FA800C8AF002080B584B002AF0200FB1D1A70D4
:101FB800FB1D19780548064B00931F231822FFF7CD
:101FC80061FF03001800BD4602B080BD14B70020B1
:101FD800F8AB00200FB480B500AF0823FB181B78BE
:101FE80001225340DBB2002B01D001F0ABFDC0460B
:101FF800BD4680BC08BC04B0184780B582B000AFAD
:102008007860C046BD4602B080BD000080B500AF14
:10201800014B1800BD4680BD32BE002080B500AF20
:10202800024B9B681800BD4680BDC04600ED00E02D
:1020380080B582B000AF78607B6801221343180036
:10204800BD4602B080BD80B582B000AF78607B68C5
:10205800012293431800BD4602B080BD80B58AB006
:1020680000AFF860B9607A60FFF7D8FF0200FB683C
:1020780010339B00D318BA681A60BFF35F8FC0464D
:1020880009237B617B690E4A944663449B007B620B
:102098007B683B627B6AFB61BFF35F8FC046C046CB
:1020A800FB6900221A60C0463B6ABB61BB6983F3C7
:1020B8001088C046C046C046BD460AB080BDC0466E
:1020C8004000003480B582B000AF78600A00FB1C85
:1020D8001A707B681800FFF790FF01227B689A400E
:1020E800FB1C1B781900100000F01CF8C046BD4608
:1020F80002B080BD80B582B000AF78607B68180000
:10210800FFF77BFF01227B689A40054B1B68134051
:102118005A1E9341DBB21800BD4602B080BDC046CE
:1021280000E100E080B582B000AF78600A00FB1CD7
:102138001A70FB1C1B78002B06D0074B7A681A60B4
:10214800064B7A681A6002E0054B7A681A60C04646
:10215800BD4602B080BDC04680E200E000E100E07C
:1021680080E100E080B582B000AF78607B6818003D
:10217800FFF743FF044B01217A6891400A001A6077
:10218800C046BD4602B080BD00E200E080B582B026
:1021980000AF78607A68054BD21A2F21002391424C
:1021A8005B41DBB21800BD4602B080BDCCAF002059
:1021B80080B584B000AF78607B681800FFF71DFF1A
:1021C8007B68180000F016F80300FB60FB68002B22
:1021D80007D0FB681800FFF7D9FF031E01D00123C1
:1021E80000E000231A1C01231340DBB21800BD468F
:1021F80004B080BD80B582B000AF78607B681800FD
:10220800FFF7FBFEFFF70AFF02007B6810339B0015
:10221800D3181B681800BD4602B080BD80B58AB0CF
:1022280000AF786039607B681800FFF7E6FE092385
:10223800BB60BB681F4A944663449B007B627B6A11
:10224800BB61EFF3108372B67B617B693B61BB694D
:10225800FB60C046FB681B685A425341DBB2002B47
:10226800F8D1BFF35F8FC046C046C0463B693B62AA
:102278007B681800FFF7BEFF0300FB61FA690E4B8D
:102288009A4203D0FA693B689A4201D1012300E0DF
:1022980000231A1C01231340DBB21800FFF79AFE33
:1022A8003A6A39687B681800FFF7D8FEC046BD4611
:1022B8000AB080BD40000034CD01001080B586B062
:1022C80000AF786039607B687B613B683B613A6945
:1022D8007B69D31A043BFB60FB685B101BB25B0590
:1022E8005B0D1BB2034A13431BB29BB21800BD46D9
:1022F80006B080BD00E0FFFF80B586B000AF786013
:1023080039607B687B613B683B613A697B69D31ABA
:10231800043B5B08FB60FB68DB0A9BB25B055B0D5B
:102328009BB2084A13439AB27B681A80FB689AB238
:102338007B68023304490A4392B21A80C046BD46FC
:1023480006B080BD00F0FFFF00F8FFFF80B584B045
:1023580000AF78607B681B885B05FB60FB68002B1F
:1023680002DA074A944663445B15FB60FB68023354
:102378005B007A68D3181800BD4604B080BDC0461B
:10238800FFFF1F0080B584B000AF78603960084B4C
:10239800FB603968FA687B685B1A5B415A43120D27
:1023A800FA607B60FB685BB21800BD4604B080BD74
:1023B800AAAA000080B582B000AF7860054A7B68A1
:1023C80011001800FFF7DEFF03001800BD4602B039
:1023D80080BDC046CCAF002090B59BB000AFF86080
:1023E800B960FB1D1A70FB681800FFF706FE092389
:1023F8007B637B6B974A944663449B00BB65BB6DCC
:102408007B64EFF3108372B63B643B6CFB637B6CBD
:10241800BB63C046BB6B1B685A425341DBB2002BFF
:10242800F8D1BFF35F8FC046C046C046FB6B7B65E3
:10243800894B1B785BB2DB43DBB2DB09DBB21800EC
:10244800FFF7C8FD844B1B785BB21A0013005B00D2
:102458009B189B00814A9B183B654F23FB187E4ABB
:1024680012781A703B6D06229A567B4B1A70FFF74A
:10247800D5FD0200FB6810339B00D3181B687B66F0
:102488007B6E1800FFF782FE03001A0001235340F9
:10249800DBB2002B30D07A6E714BD31A5A425341BB
:1024A800DBB21800FFF796FD28243B196D4A1A8005
:1024B8003B6D02336C4A11001800FFF7FFFE030062
:1024C8001A0021007B185A807B18684A9A807B186A
:1024D800FF229A717B18FA1D1278DA717B18BA6894
:1024E8009A603B6D7A1813CA13C33B6D1800FFF747
:1024F8009FFD03007B66A2E000233B667B6E18000D
:10250800FFF7A1FD0300BB64BB6CFB6511E0FB6D2D
:102518003B66FB6D9B795BB2002B11DBFB6D9B79F6
:102528005BB21A0013005B009B189B004B4A9B1878
:10253800FB65FB6DDB79FA1D12789A42E7D300E060
:10254800C0463B6E002B40D01C217B18484A1A809D
:102558007B188F22D2015A803B6E9B795BB2002B8D
:102568000EDB3B6D1C1D3B6E04331800FFF7EEFEBF
:10257800030019002000FFF7A1FE03001A0000E085
:102588003C4A1C243B199A803B6E06229A563B19FA
:102598009A713B19FA1D1278DA713B19BA689A6078
:1025A8003B6E04333A6D11001800FFF787FE0300F5
:1025B8001A003B6E9A803B6E4F22BA1812789A71B5
:1025C8003B6D3A1913CA13C339E010243B19254A45
:1025D8001A803B6D0233244A11001800FFF76EFE83
:1025E80003001A003B195A803B6D0433BA6C110082
:1025F8001800FFF763FE03001A003B199A80BB6CB2
:102608001800FFF7D7FE03001A003B199A713B190F
:10261800FA1D1278DA713B19BA689A603B6D3A195B
:1026280013CA13C3BB6C124A1A80BB6C8F22D20127
:102638005A803B6D1800FFF7FBFC03007B667A6D40
:10264800796EFB681800FFF709FDC046BD461BB050
:1026580090BDC046400000342DBE0020CCAF002005
:10266800CD01001000A1FFFFFCAF002001BDFFFF5E
:102678000148000001BD000090B593B000AF78603C
:1026880039600923FB60FB68814A944663449B00D8
:10269800BB63BB6BFB61EFF3108372B6BB61BB69B5
:1026A8007B61FB693B61C0463B691B685A425341E9
:1026B800DBB2002BF8D1BFF35F8FC046C046C046DF
:1026C8007B697B63FFF7AAFC02007B6810339B00E1
:1026D800D3181B687B647A6C6E4B9A4200D1CBE0AE
:1026E8007A6C3B689A4200D1C6E07B6C1800FFF711
:1026F8004DFD031E00D1C1E03323FC187B68180090
:10270800FFF7F8FC030023707B6800211800FFF72F
:10271800D9FCBFF35F8FC046EFF30583BB60BB688E
:10272800FB62FB6A002B04D07B681033FA6A9A427A
:1027380001D1012300E000231A1C01231340DBB25E
:102748001800FFF747FC00233B647B6C1800FFF779
:102758007AFC0300BB62BB6AFB6311E0FB6B3B6462
:10276800FB6B9B795BB2002B10DBFB6B9B795BB23D
:102778001A0013005B009B189B00474A9B18FB63D9
:10278800FB6B9B683A689A42E8D100E0C046FB6B55
:102798009B683A689A4266D127217B18FA6B92792E
:1027A8001A700A00BB181B787F2B38D8BB18002278
:1027B8009A5613005B009B189B00374A9B183B6294
:1027C8003B6A9A68FB6B9A603B6ADA79FB6BDA7151
:1027D8003B6A06229A56FB6B9A713B6A9B795BB2FD
:1027E800002B0EDBFB6B1C1D3B6A04331800FFF744
:1027F800ADFD030019002000FFF760FD03001A007B
:1028080000E0264AFB6B9A80254B00229A563B6AC9
:102818009A71234B2722BA1812781A7023E0FB6AA0
:10282800002B19D13B6C002B06D03B6CFF229A7110
:102838003B6C1C4A9A8001E0164B7B64184B0022C3
:102848009A56FB6B9A71FB6B1800FFF7B3FD0300F8
:102858001A00134B1A7006E0FB6B0433124A11007E
:102868001800FFF749FD3323FB181A787B6811001D
:102878001800FFF727FC01E0064B7B647A6B796C44
:102888007B681800FFF7EAFBC046BD4613B090BD51
:1028980040000034CD010010CCAF002001BD000085
:1028A8002DBE002001BDFFFF06B0002090B593B0FB
:1028B80000AF78607B681800FFF7BAFB03003B6441
:1028C800EFF30583BB61BB69FB630923FB61FB690C
:1028D800484A944663449B00BB63BB6BFB62EFF3BF
:1028E800108372B6BB62BB6A7B62FB6A3B62C046FE
:1028F8003B6A1B685A425341DBB2002BF8D1BFF345
:102908005F8FC046C046C0467B6A7B633323FC1892
:102918007B681800FFF74EFD03002370FFF77EFB6E
:102928000200FB6B9B00D3181B683A6C9A4208D1D3
:10293800FFF774FB0200FB6B9B00D3182E4A1A604A
:1029480035E03223FB1800221A7000237B642BE049
:102958002A497A6C13005B009B189B00CB1806333E
:102968001B785BB23322BA18127852B29A4218D145
:1029780022497A6C13005B009B189B00CB18063326
:10298800FF221A701D497A6C13005B009B189B008C
:10299800CB1804331A4A1A803223FB1801221A7002
:1029A80005E07B6C01337B647B6C032BD0D9154B22
:1029B80000229A567B689A71124B3322BA18127801
:1029C8001A70BB6B7B617B6B3B617B69FB60BFF300
:1029D8005F8FC046C046FB6800221A60C0463B694C
:1029E800BB60BB6883F31088C046C046C046BD467E
:1029F80013B090BD40000034CD010010CCAF0020D2
:102A080001BDFFFF2DBE002080B584B000AF0B4B89
:102A18007B600B4BFB600023BB6007E0FB681A1D63
:102A2800FA607A681A60BB680133BB60BB68072B21
:102A3800F4D9C046C046BD4604B080BD80808080C1
:102A480000E400E080B586B002AF0200FB1D1A70FA
:102A5800FFF7DCFAFB1D1978094B009305230022C8
:102A6800FFF710FA0300FB60FB68002B03DBFB6831
:102A78001F22D31AFB60FB681800BD4604B080BD56
:102A880030AC002080B582B000AF78600A00FB1C33
:102A98001A707B681968FB1C1A7813005B009B1876
:102AA800033BCB181800BD4602B080BD80B584B08A
:102AB80000AF786008001100FB1C021C1A70BB1CD8
:102AC8000A1C1A70FB1C1A787B6811001800FFF7A3
:102AD800D9FF0300FB60BB1C1A787B681100180043
:102AE800FFF7D0FF0300BB60BB68FA1C12789A702E
:102AF800FB681B78002B04D1FB68BA1C12781A708B
:102B080007E0FB681A78BB685A70FB68BA1C127831
:102B18001A70C046BD4604B080BD90B583B000AF02
:102B2800786008001100FB1C021C1A70BB1C0A1CF0
:102B38001A70FB1C1B78002B02D1BB1C1B7827E0EA
:102B4800BB1C1B78002B02D1FB1C1B7820E07B6888
:102B58005C687B689868BB1C1A78FB1C1B7819009A
:102B6800A047031E0AD0BB1C1A78FB1C19787B6887
:102B78001800FFF79BFFFB1C1B7809E0FB1C1A7869
:102B8800BB1C19787B681800FFF790FFBB1C1B78EB
:102B98001800BD4603B090BD80B582B000AF786024
:102BA8007B685B7B1800BD4602B080BD80B582B0F3
:102BB80000AF78607B680121180000F01FF903005E
:102BC8001800BD4602B080BD80B584B000AFF86083
:102BD800B9607A603B60BB68DAB2FB681A73FB685D
:102BE8007A685A60FB683A689A60FB68180000F0D7
:102BF80004F8C046BD4604B080BD90B585B000AFAE
:102C080078607B6800225A737B6801229A737B681C
:102C18001A7B7B68DA730F23FB1801221A7013E002
:102C28000F243B191A787B6811001800FFF72AFF58
:102C3800020021007B181B780133DBB253707B182C
:102C48001A787B1801321A707B681B7B0F22BA181E
:102C580012789A42E4D37B681A7B7B6811001800CB
:102C6800FFF710FF030000225A70C046BD4605B0AA
:102C780090BDF0B585B000AF78600A00FB1C1A70F3
:102C8800FB1C1B78002B0AD0FB1C1A787B681100F0
:102C98001800FFF7F7FE03005B78002B02D1FB1C3E
:102CA8001B784AE00F26BB19FA1C12781A70FB1C15
:102CB8001A787B6811001800FFF7E4FE02000E2561
:102CC8007B1952781A707B191A787B6811001800E2
:102CD800FFF7D8FE02000D23FB1852781A707B19F3
:102CE8001A787B6811001800FFF7CCFE0400002357
:102CF8006370BB191A787B6811001800FFF7C2FED1
:102D0800030062785A707B191A78BB1919787B68A6
:102D18001800FFF702FF03001C000D23FB181A78A8
:102D28007B6811001800FFF7A4FF03001A007B68F6
:102D380021001800FFF7F1FE03001800BD4605B09A
:102D4800F0BD90B585B000AF786008001100FB1C9D
:102D5800021C1A70BB1C0A1C1A70FB1C1A787B68B0
:102D680011001800FFF78EFE03001A780F23FC18D5
:102D78007B6811001800FFF77CFF03002370BB1C61
:102D88001B78002B1AD07B68DB7B002B0AD07B6872
:102D9800DA7B7B6811001800FFF774FE0200FB1C49
:102DA8001B7853707B689B7B002B03D17B68FA1CD4
:102DB80012789A737B68FA1C1278DA730F22BB18A0
:102DC8001B78002B09D0BB181A787B6811001800F3
:102DD800FFF758FE030000229A70FB1C1A787B68E4
:102DE80011001800FFF74EFE030000225A700F234F
:102DF800FB181B781800BD4605B090BDB0B584B06F
:102E080000AF78600A00FB1C1A700F257C197B68DC
:102E18001800FFF7C1FE03002370FB1C1A782C0072
:102E28003B1919787B681800FFF78BFF03001A001D
:102E38007B685A733B191B781800BD4604B0B0BDB7
:102E4800B0B588B000AF78600A00FB1C1A70FB1C94
:102E58001B78002B01D1002378E07B685B7BFA1C90
:102E680012789A4205D17B681800FFF79FFE01236C
:102E78006CE0FB1C1A787B6811001800FFF702FE53
:102E88000300BB61BB699B78002B01D100235DE087
:102E9800BB699A787B6811001800FFF7F3FD0300FF
:102EA8007B617B691B78FA1C12789A4204D1BB6952
:102EB8005A787B691A702AE01F23FB187A691278FE
:102EC8001A701323FB1800221A701F23FB181A7894
:102ED8007B6811001800FFF7D5FD0300FB60FB6855
:102EE8005B78FA1C12789A4208D1BB695A78FB6859
:102EF8005A701323FB1801221A7008E01F217B184F
:102F0800FA6852781A707B181B78002BDDD1BB69E0
:102F180000229A70BB699A78BB695A700B257C1994
:102F2800FB1C19787B6801221800FFF70AFF0300D1
:102F380023707B68597B7B191A787B681800FFF728
:102F4800ECFD03001A007B685A7301231800BD4684
:102F580008B0B0BD80B588B002AFF860B9607A60DB
:102F6800FEF7E8FE03001A0001235340DBB2002BF2
:102F780035D01D4A1C4B0093130001220121052066
:102F880000F084F9B968FA6818487B6800930B0068
:102F9800012100F07DFBBB687A6853431900F8688B
:102FA80000F0A6FE03007B61114A114B0093130049
:102FB80000220221042000F069F97A697B690093F4
:102FC800130000220121052000F060F9064A064B93
:102FD8000093130002220021062000F057F9C04692
:102FE800BD4606B080BDC046006CDC0200800240D1
:102FF800001BB70080B58AB000AFF860B9607A608E
:103008003B602D4BBB61A0235B007B624BE07B6A7E
:10301800BA6953437B617B69284A93423FD97B69EC
:10302800274A93423BD807233B6234E03B6AFB6163
:103038002BE03B6AFA6953431900786900F058FE9F
:1030480003003B613A69FB689A421BD13B6AFA6903
:103058005A437B691100180000F04AFE0B1E11D17B
:103068007A6913005B019B1A9B009B18DB001A000E
:10307800BB681A607B683A6A1A603B68FA691A602A
:10308800012314E0FB69013BFB61FB69002BD0D1F4
:103098003B6A013B3B623B6A002BC7D100E0C0465C
:1030A8007B6A013B7B627B6A0F2BB0D80023180038
:1030B800BD460AB080BDC046E02E0000AF710B00CF
:1030C800006A180080B582B000AF7860C046BD467F
:1030D80002B080BD80B582B000AF7860D0231B06F7
:1030E8007A685A61C046BD4602B080BD80B582B0DC
:1030F80000AF7860D0231B067A689A61C046BD4647
:1031080002B080BD80B584B000AF78600A00FB1CB7
:103118001A7001227B689A401300FB60FB1C1B7825
:10312800002B04D0FB681800FFF7D4FF03E0FB680E
:103138001800FFF7DBFFC046BD4604B080BD80B570
:1031480082B000AF7860D0231B067A685A62C04606
:10315800BD4602B080BD80B582B000AF7860D02394
:103168001B067A689A62C046BD4602B080BD80B52B
:1031780084B000AF78600A00FB1C1A7001227B68DB
:103188009A401300FB60FB1C1B78002B04D0FB68E3
:103198001800FFF7D4FF03E0FB681800FFF7DBFF18
:1031A800C046BD4604B080BD80B588B000AF786029
:1031B8000A00FB1C1A707B681800FFF783FF7B6806
:1031C8009B00124A94466344FB614023BB61C023C1
:1031D8007B61FB691A68BB6953407A691340FA69D5
:1031E8003A61FB603B69802252011343FA681A6016
:1031F800C046C0460649FB1C1A787B68DB00CB1822
:1032080004331A60C046BD4608B080BD04C0014002
:103218000040014080B582B000AF78607B68002133
:103228001800FFF7A4FF7B6800211800FFF76AFF6A
:103238007B6805211800FFF7B7FFC046BD4602B0FE
:1032480080BD80B582B000AF78607B68033BFDD25B
:103258007B60C046BD4602B080BD80B582B000AF7D
:103268000200FB1D1A70FB1D1B78052B03D0FB1DEC
:103278001B78042B01D1012300E000231A1C012331
:103288001340DBB21800BD4602B080BDF0B5A3B054
:1032980000AF3963FA62BB620F2328229B18DA1940
:1032A800031C1370982308229B18DB191A68BB6A41
:1032B8009A4201D900230AE1BB6A3B6200237B6280
:1032C8003A6A7B6A1100090EF96113001B02BB619F
:1032D800982308229B18DB191B683B6100237B613C
:1032E8003A697B69B869F96900F040FD02000B0092
:1032F800130084203A1813600F2328229B18DB1927
:103308001A7813005B009B189B00734A9446634429
:1033180080217A1813607B181B685B683A1812685A
:103328009A4204D97B181B683A1812685A600F230E
:1033380028229B18DB191B781800FFF78EFF031E45
:1033480019D03B6B012B16D18023FB181B68BB6778
:1033580003237B67BB6FC022920113437A6F1A6005
:10336800C04600E0C0468023FB181B689B6801220A
:103378001340F7D02CE08023FB181B683B678023A1
:103388001B01FB663B6FC02292011343FA6E1A6061
:10339800C0460F2128268B19DB191A784F4B92004B
:1033A800D358002B14D04D4B58698B19DB191A7858
:1033B8004A4B9200D358190000F09AFC03000133DD
:1033C800FB67FA6F13005B009B181800FFF739FFC3
:1033D8008026BB191A68FB6A5B01BA667B66E02324
:1033E8003B66BB6E1A687B6E53403A6E1340BA6EEA
:1033F800FA65BB65FB6D802252011343BA6D1A60F2
:10340800C046C0460F2328229B18DB191B781800DA
:10341800FFF723FF031E23D0BB191B687B653B6B9B
:103428003B650323FB647B6D1A683B6D5340FA6C64
:1034380013407A6DBA647B64BB6C802252011343DB
:103448007A6C1A60C046C04600E0C0468023FB186C
:103458001B689B6801213A6B91400A001340F4D025
:1034680080217B181B683B6480231B01FB633B6C3A
:10347800802292011343FA6B1A60C0467B181B68BE
:1034880084203A1812685A60BB6ABB600023FB604C
:10349800BA68FB6811000D0E13001C023B181B686C
:1034A8003B6000237B603A687B682000290000F0BD
:1034B8005DFC02000B00100019000F2328229B1846
:1034C800DB191A780100054B9200D150012318002E
:1034D800BD4623B0F0BDC0460080004018B70020AC
:1034E80080B588B002AF0C2000F048F9FEF722FC46
:1034F800031E11D000237B6107E03F4B7A699200DD
:103508003E49D1507B6901337B617B69092BF4D932
:10351800394B3B4A5A626CE03A4B00229A6700F0FA
:10352800FFF9394B3B610123FB603B69C0229201E3
:103538001343FA681A60C04600E0C046314B5B6C22
:10354800012BFAD1314BBB6003237B60BB68C022DF
:10355800920113437A681A60C04600E0C046294BBE
:103568009B6B012BFAD12A4A2A480223009306238F
:10357800012100F08DF8284A2848052300930523E7
:10358800012100F085F8264A254B009313000022FC
:1035980002210420FFF77AFE224A224B00931300EF
:1035A800002201210520FFF771FE144A134B0093F6
:1035B8001300002200210720FFF768FE0F4A0F4B77
:1035C80000931300002200210820FFF75FFE0B4A3A
:1035D8000B4B00931300002200210920FFF756FE31
:1035E800104A104B00931300002200210620FFF719
:1035F8004DFEBD4606B080BD18B70020006CDC0249
:103608001BB70000008000403C8000403080004034
:10361800002F685900800240008C864700C0024095
:10362800001BB7004059730780B584B000AF7860BD
:10363800074BFB607B68BB60FB68802292011343E9
:10364800BA681A60C046C046BD4604B080BDC046D0
:1036580000C0004080B584B000AF78600B4BFB60C1
:103668007B68BB60FB68C02292011343BA681A608A
:10367800C04600E0C046054B9B68DB437A681340B0
:10368800F8D1C046C046BD4604B080BD00C0004069
:1036980080B58EB000AFF860B9607A603B60B968F9
:1036A800344800F025FB03007B63796B786800F0F1
:1036B8001FFB03003B633B681A043B6C1B0313436B
:1036C800FB62FB681B68002B15DAFB681B683F224E
:1036D8001340BA689A420ED1FB689B681B051B0D04
:1036E8003A6B9A4207D1FB68DA68EE23DB02134093
:1036F800FA6A9A423AD0FB681F4A934202D1802361
:103708009B0101E080235B01BB62BB6A1800FFF7E5
:103718008BFFBB6A1800FFF79DFFFB68BA681A6049
:10372800FB683A6B9A6021237B62FB6804333B6237
:103738007B6AFB613B6AC02292011343FA691A60F3
:10374800C04600E0C046FB681B68002BFADAFB683D
:10375800FA6ADA60FB680433BB6108237B61BB69E2
:10376800C022920113437A691A6000E0C046BD4640
:103778000EB080BD001BB70000C0024080B582B00B
:1037880000AF7860044B7A68802189000A43DA62C6
:10379800C046BD4602B080BD0080054080B500AF80
:1037A800034A044B1B685360C046BD4680BDC046F3
:1037B80000800540B8BB002080B590B000AF7860AD
:1037C8000A00FB1C1A70344B3B638023DB05FB6249
:1037D8003B6BC02292011343FA6A1A60C0462F4B12
:1037E800BB632F4B7B63BB6B8022920113437A6BC5
:1037F8001A60C046E023DB04FB63FB1C1B78002B2C
:103808000AD0254BBB62FB6B7B62BB6A80229201AC
:1038180013437A6A1A600AE01F4B3B62FB6BFB6139
:103828003B6AC02292011343FA691A60C0467B685A
:10383800002B0BD1184BBB6180231B067B61BB6936
:103848008022920113437A691A6020E07A68130093
:103858005B019B1A9B009B181B011A00114B1A60F5
:10386800104B1A6880235B049A4202D30D4B0E4A10
:103878001A60FFF793FF084B3B618023DB05FB6071
:103888003B69802292011343FA681A60C046C04619
:10389800BD4610B080BDC04600800540080001400C
:1038A800FCFF0100B8BB0020FFFFFF0080B586B019
:1038B80000AFF860B9607A60164B7B618023DB0546
:1038C8003B617B69C022920113433A691A60C04682
:1038D800FB68002B12D0FB6801221343FB600D4BE1
:1038E8000D4ADA610B4BFA680C494A401A62094BD7
:1038F800BA685A62074BFA689A6202E0054B0022DE
:10390800DA617B6800211800FFF756FFC046BD4604
:1039180006B080BD00800540D3C007B02D3FF84FEA
:1039280080B582B000AF0E4BAA2212011A600C4B70
:103938002F22DA600A4B7B600A4B3B607B6880224F
:10394800920113433A681A60C046C046044B5B684C
:10395800002BFBDAC046C046BD4602B080BDC0465B
:103968000040024000B0FA0080B500AF00BEC0467B
:10397800BD4680BD80B584B000AF7860074BFB6062
:103988007B68BB60FB68802292011343BA681A60A7
:10399800C046C046BD4604B080BDC04600C0004019
:1039A80080B584B000AF78600B4BFB607B68BB6070
:1039B800FB68C02292011343BA681A60C04600E04F
:1039C800C046054B9B68DB437A681340F8D1C04674
:1039D800C046BD4604B080BD00C0004080B586B07A
:1039E80000AF344B1800FFF7C5FF334B1800FFF743
:1039F800D7FF324B7B6105E07B691B6898477B6981
:103A080004337B617A692E4B9A42F5D3FFF768FD40
:103A18002C4B1800FFF7C4FF2B4BBB604023BA6840
:103A28009367BA685367BA681367BA68D366274B4F
:103A38003B6116E03B691B68002B09D03B693B6082
:103A48003B681800FCF7B4FF3B6808333B6108E0AB
:103A58003B697B607B681800FCF793FF7B68083341
:103A68003B613A691A4B9A42E4D31A4B9B681A0095
:103A7800194B18001100C0231A0000F089FC154BDF
:103A8800154A9A60FEF752FAFEF7BEFFFDF774FA80
:103A9800124BFB6005E0FB681B689847FB68043322
:103AA800FB60FA680E4B9A42F5D3C046C046BD4645
:103AB80006B080BDBFCDFBFEFE7F3C0090B000206D
:103AC800A0B00020FFFFFF0100F0014080B00020FF
:103AD80090B0002000ED00E000000020A0B0002021
:103AE800A8B0002080B582B000AF7860FFF73CFF37
:103AF800FCE780B582B000AF78607B681800FFF7FC
:103B0800F1FF00000FB480B582B000AF0B4B180076
:103B180000F0E6FD3B69002B0CD01423FB187B60FA
:103B28007A683B691100180000F03CF8044B180053
:103B380000F0D6FD0120FFF7D5FFC046A0AC00205D
:103B4800B0AC002080B500AF014B1800FFF7DAFFDA
:103B5800B4AC002080B582B000AF0200FB1D1A7023
:103B6800FB1D1B78180000F0A7FDC046BD4602B03B
:103B780080BD80B584B000AFB9607A603B600F212A
:103B88007B18021C1A700A00BB181B78002B04D083
:103B9800BB181B781800FFF7DDFFC046BD4604B010
:103BA80080BD0000B0B586B002AF786039600D4BBB
:103BB8001B68002B0DD00B4B1C687D6801235A42F3
:103BC8000C23F91808483B6800932B00A0470123F1
:103BD80004E07B68180000F083FD00231800BD4650
:103BE80004B0B0BDB4BB0020433900200148042113
:103BF800014B184720B00020573A0020014B9B6822
:103C08001847000020B0002080B582B000AF020045
:103C1800BB1D1A80BB1D1B881B881800BD4602B03F
:103C280080BD80B586B000AF78607B687B61182066
:103C3800FFF7EAFF03003B611420FFF7E5FF0300ED
:103C4800FB607969FA683B6910009847030018001F
:103C5800BD4606B080BD80B584B000AF786018203E
:103C6800FFF7D2FF0300FB601620FFF7CDFF03002C
:103C7800BB607968BA68FB681000984703001800B1
:103C8800BD4604B080BD80B584B000AF78603960AF
:103C98000F23FB1801221A700023BB601CE0BB68CD
:103CA8009B007A68D3181B681800FFF7BAFF010059
:103CB800BB689B007A68D3180A001A60BB689B002F
:103CC8007A68D3181B68002B03D10F23FB18002236
:103CD8001A70BB680133BB60BA683B689A42DED38E
:103CE8000F23FB181B781800BD4604B080BD0000E8
:103CF800114A936F9B0813D210665166002905D0AC
:103D0800FFE7FFE7FFE7516F106F704704B5002822
:103D180001D00020C04305F031FF002104BDC0469A
:103D2800F0B5146E556E576F166FFFF7E5FF146602
:103D3800556657671667F0BD000000D094464A4A9A
:103D4800926F9208624601D228E0C046F0B5464E0E
:103D5800346E756E776F366F00F020F89446424ADD
:103D680014665566576716676246F0BD94463E4A24
:103D7800926F9208624601D254E0C046F0B53A4EBE
:103D8800346E756E776F366F00F04CF89446364A8D
:103D980014665566576716676246F0BD002B24DB2C
:103DA80011D000293EDA00B5C943404200D10131A3
:103DB80000F038F8C943404200D10131DB43524298
:103DC80000D1013300BD002AEBD1002801D1002920
:103DD80005D00020C90FC90701D1C043410800B56B
:103DE80005F0CCFE0022002300BD00B500290ADB47
:103DF800DB43524200D1013300F014F8C94340427A
:103E080000D1013100BDC943404200D10131DB433B
:103E1800524200D1013300F005F8DB43524200D191
:103E2800013300BD002923D1002B18D1002A0CD062
:103E3800BC460D4F38667A6600210023FFE7FFE78E
:103E4800FFE77A6F386F67467047002801D0074848
:103E5800010000B505F092FE0022002300BD02001B
:103E68000B00002000217047000000D0FFFFFFFF7B
:103E7800002B00D0BFE0130C28D1002AE7D080B473
:103E8800114F39667A66FFE7FFE730B4040C7B6FA1
:103E9800396F1B0423433B667A66FFE7FFE7FFE7BA
:103EA800C04684B27B6F3D6F1B0423433B667A6632
:103EB800FFE7FFE7C04600232C042D0C7A6F386F0C
:103EC80000196941B0BC7047000000D0F0B59446B5
:103ED8000025140E01D112020835140F01D1120168
:103EE8000435940F01D192000235D40F01D152004C
:103EF8000135D40B0134254F7C66254C3C660E0CED
:103F080093B2FFE7FFE7FFE73C6F6643360C7703A2
:103F1800BE467343DF0B5B04C01AB941130C7343ED
:103F2800DB18C91ACE086643360CB64493B27343FD
:103F38001F0F1B01C01AB941130C73431F0B1B053C
:103F4800C01AB941860D8F023E436643360C092DCF
:103F580024DB520A7243801A7703460A6643360CFA
:103F680016235B1BDE40DF40BF1964466643821B95
:103F78007046043506330100D940A840C01900D363
:103F88000131A24206D20023F0BD0000000000D09B
:103F9800FFFFFFFF121B0130F3D3F1E709277F1B57
:103FA800FE406446A2B27243801A00D20139220C44
:103FB8007243130C1204821A99410B00704604359F
:103FC80013370100F940A840801900D30131002BB4
:103FD80002D1A2420AD2F0BD013000D30131121B36
:103FE800FAD2013BF8D1A24200D2F0BD013000D391
:103FF8000131121BF7E7F0B51C0C00D080E00CB4BF
:1040080000251C0A04D11B02160E33431202083580
:104018001C0B04D11B01160F3343120104359C0BF2
:1040280004D19B00960F334392000235DC0B02D17A
:1040380092185B4101351C00971864410134464FC2
:104048007C66464C3C660E0CFFE7FFE7FFE7C04680
:104058003C6F6643360C7703BE4697B27743C01B66
:1040680000D20139C01B00D201399FB27743C91B66
:10407800C91B170C77437E04FF0B801BB941CE0880
:104088006643360C0C2D33DBB644120B1F053A433E
:104098001B0B97B27743C01B00D201399FB27743FD
:1040A800C91B170C77433E043F0C801BB941860D92
:1040B8008F023E43664329277F1BFE400C3D77460F
:1040C800AF40BF1930BCA2B2ABB272437343801A7F
:1040D8009941220C7243130C1204801A9941020070
:1040E8000B000137001BA941F9D2781E0021F0BD51
:1040F8000C277F1BFE4077467F0BAF40FF19E0E798
:1041080000245D1C07D0144F7D663966FFE7FFE782
:10411800FFE7FFE73C6F95B29EB265436643401BDD
:10412800B141150C1E0C6543664336042F0C3E4303
:104138002D04401BB141994204D202000B0020001B
:104148000021F0BD01D19042F7D3801A9941013482
:104158009942F2D3F6E70000000000D0FFFFFFFF0E
:1041680080B500AF13231B781800BD4680BD80B50D
:1041780082B000AF0200FB1D1A70BB1D0A1C1A702A
:10418800FB1D1A78BB1D1B781B0213431800BD4684
:1041980002B080BD80B584B000AFFFF7E1FF030037
:1041A800BB60BB68012B0DD10023FB6007E01749FA
:1041B800174BFA689200D150FB680133FB60FB682B
:1041C8001F2BF4D9BB68012B0FDD44215320FFF7C7
:1041D800CEFF03001800FFF73EFD03007B607968FF
:1041E8000B4B8022180000F0D3F8BB68022B02DCCE
:1041F800064A074B9A64074B1800FFF712FD0200A6
:10420800054B1A60C046BD4604B080BDED3F002096
:10421800F8BB00204C330000F8BC002007B560460E
:1042280001880A0A0230DF2AFAD1C9B2820804D307
:10423800028840880004104300E00068014A50509A
:10424800039007BDF8BB002051434343C9188C466F
:10425800110C83B24B4310B4040C614392B280B288
:10426800504362431C041B0C001910BC5941130431
:10427800120CC01851416144704780B500AF132338
:104288001B781800BD4680BD80B582B000AF020023
:10429800FB1D1A70BB1D0A1C1A70FB1D1A78BB1D6A
:1042A8001B781B0213431800BD4602B080BD0000F6
:1042B80080B584B000AFFFF7E0FF0300BB60462184
:1042C8005320FFF7E1FF03001800FFF7C4FC0300C9
:1042D8007B60BB68012B1AD17968174B54221800F0
:1042E80000F056F81523FB6007E01449124BFA68F2
:1042F8009200D150FB680133FB60FB681F2BF4D997
:104308000E4A0D4B1A620C4B1A6A0B4BDA61BB68EA
:10431800012B05DD7968084B8022180000F038F879
:10432800074B1800FFF77DFC0200064B1A60C046D9
:10433800BD4604B080BDC046FCBC00201941002029
:104348004C330000F8BC002007B5604601880A0A13
:104358000230DF2AFAD1C9B2820804D30288408821
:104368000004104300E00068014A5050039007BD64
:10437800FCBC002001480421014B184730B0002044
:10438800573A0020014B1B681847000030B0002046
:10439800014B5B681847000030B0002080B582B040
:1043A80000AF386079603A687B6810001900BD4634
:1043B80002B080BD80B584B000AFF8603A607B6021
:1043C800F9683A687B680A604B60C046BD4604B02D
:1043D80080BD80B582B000AFFDF710FA02000B0077
:1043E80039000800FFF7E6FF3A687B6810001900FB
:1043F800BD4602B080BD0000B0B58AB000AFB8605D
:10440800F9607A60BA68FB6810001900FFF7C6FF08
:1044180002000B00BA61FB617B681C0000231D00D1
:10442800FA229200002320002900FFF70DFF020066
:104438000B0010001900BA69FB6912184B413A6267
:104448007B623A6A7B6A002B04DA01225242084BEB
:104458003A627B623A6A7B6A102179180800FFF792
:10446800A9FF3A697B6910001900BD460AB0B0BDC2
:10447800FFFFFF7F80B582B000AF7860FFF7A9FF2C
:104488007B681A00FFF7B8FF02000B001000190044
:10449800BD4602B080BD000080B500AFFA239B0086
:1044A8001800FFF7E7FF02000B000449080005F0B9
:1044B800F0FB03001800BD4680BDC04688B0002050
:1044C80080B500AF034B180005F08DFCC046BD4613
:1044D80080BDC04688B0002080B584B000AFF860C9
:1044E800B9607A60FB681B687968BA6810009847F9
:1044F800C046BD4604B080BD80B588B000AFF86046
:10450800B9607A60FB685B7D01225340DBB2002B07
:1045180006D0FB681B687968BA681000984760E0A5
:104528000023FB610023BB613BE0BB69002B09DD75
:10453800BB69013BBA68D3181B780D3B5A425341FB
:10454800DBB204E0FB681B7D5A1E9341DBB21721E6
:104558007A181370BB69BA68D3181B780A2B1DD157
:104568007B181B7801225340DBB2002B16D0BA69A6
:10457800FB699A4209DDFB681B68FA69B968881803
:10458800B969FA698A1A11009847FB681B68164AC4
:10459800022110009847BB690133FB61BB690133F5
:1045A800BB61BA697B689A42BFDBFA697B689A4249
:1045B80009DAFB681B68FA69B96888187968FA69C2
:1045C8008A1A110098477B68002B0ADD7B68013B3B
:1045D800BA68D3181B780D3B5A425341DAB2FB68CC
:1045E8001A75BD4608B080BD34AD002090B589B0BD
:1045F80000AFF860B9601900FB1D1A70BB1D0A1CDA
:104608001A701B23FC18FFF747FF03002370BB68D1
:10461800013305D1FB68180005F0B2FA0300BB604E
:10462800BB1D1B78002B01D01F4B00E01F4B7B618B
:104638001F4B1B68FB6125E0FB691B68002B1BD027
:104648001C4B1B68002B04D01A4B1B68FA699A4252
:1046580014D1BA68F968F8697B699847FB1D1B781B
:10466800002B0CD013217B180A221A707918F869CC
:104678007B690122984702E0C04600E0C046FB691A
:104688001B69FB61FB69002BD6D11B23FB181B7828
:10469800002B01D0FFF714FFBB685A1E9341DBB211
:1046A8001800BD4609B090BDA9420020C9420020AB
:1046B800A8B70020B0B7002080B584B000AF7860FC
:1046C8007B68DAB20F217B181A7078180023002251
:1046D8000121FFF78BFF7B681800BD4604B080BD41
:1046E80080B584B000AF78607B68180005F048FAA0
:1046F8000300FB60F968786800230122FFF776FF62
:1047080000F03AF8FB681800BD4604B080BD000010
:1047180080B584B000AF78600A00FB1C1A70154B96
:10472800FB6017E0FB681B687A689A420ED1FB1C95
:104738001B7801225340DBB2002B17D07B681A6923
:10474800FB681A607B6800221A610FE0FB681B682F
:104758001033FB60FB681B68002BE3D1FB1C1B7844
:10476800002B04D0FB687A681A6000E0C046BD469A
:1047780004B080BDA8B7002080B582B000AF0B4B55
:104788001B687B6009E07B685B68002B02D07B6854
:104798005B6898477B681B697B607B68002BF2D15C
:1047A800C046C046BD4602B080BDC046A8B700207E
:1047B80080B582B000AFFB1D00221A7000F01CFC0F
:1047C80003001A00FB1D1B781343DBB21A00FB1D04
:1047D800511E8A411A70FB1D1B781800BD4602B095
:1047E80080BD000080B584B000AF78603960054BAB
:1047F8001800FFF716FA0300FB6039687A68FB684F
:10480800100098475542000080B500AFC046BD462D
:1048180080BD000080B582B000AF0200FB1D1A7099
:10482800034B00221A70C046BD4602B080BDC04688
:104838002EBE002080B584B000AF39601100FB1D8A
:10484800021C1A703B1D0A1C1A803B685B79FF2BFF
:1048580007D13B689B79002B03D13B68DB79012B9F
:1048680001D0002312E00E217B1809221A803A1D7C
:104878007B1812881B889A4201D2002306E03B6805
:104888009A78044B1A700E23FB181B881800BD4633
:1048980004B080BD2EBE002080B584B000AF3A6061
:1048A800FB1D021C1A70BB1D0A1C1A70BB1D1B784D
:1048B800012B01D0012340E03B681A795B791B0288
:1048C80013439BB21F4A1278934235D13B685B78F9
:1048D800012B26D10023FB603B689A78DB781B020A
:1048E80013439BB21A0080235B0013400BD03B6834
:1048F8009A78DB781B0213439BB25B0A9BB21A00BF
:1049080001239340FB603B689A78DB781B021343D2
:104918009BB21A007F231A40FB6811001800FFF7AA
:1049280061FF3B685B78022B06D1642200210020DE
:10493800FEF7BCFF012300E000231800BD4604B0C9
:1049480080BDC0462EBE002090B583B000AF0400E5
:10495800080011003B60FB1D221C1A70BB1D021CC5
:104968001A707B1D0A1C1A7001231800BD4603B07B
:1049780090BD000080B582B000AF78607B680122EE
:104988001A70024B1800BD4602B080BD38AD002039
:1049980080B584B000AF02003960FB1D1A703B6817
:1049A8001A78597809020A43997809040A43DB7886
:1049B8001B0613431A009623DB009A4206D10023F4
:1049C800FB60FB6800211800FFF70CFFC046BD46DE
:1049D80004B080BD80B582B000AF386079603A68B5
:1049E8007B6810001900BD4602B080BD80B584B058
:1049F80000AFF8603A607B60F9683A687B680A60E3
:104A08004B60C046BD4604B080BD80B582B000AFE3
:104A1800FCF7F4FE02000B0039000800FFF7E6FF80
:104A28003A687B6810001900BD4602B080BD0000DE
:104A380080B58AB000AFB860F9603A607B60BA6848
:104A4800FB6810001900FFF7C5FF02000B00BA61F0
:104A5800FB61B869F9693A687B6812184B413A6298
:104A68007B623A6A7B6A002B04DA01225242084BC5
:104A78003A627B623A6A7B6A102179180800FFF76C
:104A8800B5FF3A697B6910001900BD460AB080BDC0
:104A9800FFFFFF7FB0B58AB000AFB860F9607A60F9
:104AA800BA68FB6810001900FFF794FF02000B00BA
:104AB800BA61FB617B681C0000231D00FA2292008A
:104AC800002320002900FFF7BFFB02000B001000A5
:104AD8001900BA69FB6912184B413A627B623A6A5B
:104AE8007B6A002B04DA01225242084B3A627B624D
:104AF8003A6A7B6A102179180800FFF777FF3A694C
:104B08007B6910001900BD460AB0B0BDFFFFFF7FEA
:104B180080B582B000AF7860FFF777FF7B681A0036
:104B2800FFF7B8FF02000B0010001900BD4602B0E5
:104B380080BD80B588B004AFF8603A607B60FFF74D
:104B480064FF3A687B68FFF773FF02000B00F868A0
:104B58002021791809780291F9690191B9690091C0
:104B6800FCF752FC03001800BD4604B080BD80B5B8
:104B780088B004AFB860F9607A603B60FCF724FA4B
:104B8800BA68FB6818217918097802913968019187
:104B980079680091FFF7CDFF03001800BD4604B007
:104BA80080BD80B586B000AF78607B681B687B618C
:104BB800EFF3108372B63B613B69FB607B69BB60B6
:104BC800C046BB681B685A425341DBB2002BF8D180
:104BD800BFF35F8FC046C046C046FA687B685A601C
:104BE800C046BD4606B080BD80B586B000AF7860CF
:104BF8007B681A687B685B687A613B617B69FB60EC
:104C0800BFF35F8FC046C046FB6800221A60C046EB
:104C18003B69BB60BB6883F31088C046C046C0468A
:104C2800BD4606B080BD80B582B000AF78607B68B5
:104C38001B685A1E9341DBB21800BD4602B080BD06
:104C480080B500AF002002F079FB03001800BD46D4
:104C580080BD80B500AF002002F0B4FB030018004F
:104C6800BD4680BD80B582B000AF786039603A68D3
:104C78007B681900002002F0BFFB03001800BD4646
:104C880002B080BD80B582B000AF786039603A6804
:104C98007B681900002002F0D5FB03001800BD4610
:104CA80002B080BD80B500AF002002F0FFFB03001A
:104CB8001800BD4680BD80B500AF002002F07EFC24
:104CC80003001800BD4680BD80B584B000AF786091
:104CD8003960134B1800FFF7A6FF031E0FD0104BC7
:104CE8001800FFF75EFF0F4B00221A700C4B1800DC
:104CF800FFF77AFF00220023BA60FB6004E0FA2283
:104D080092000023BA60FB60074B1B781800FDF780
:104D180029FABA68FB6810001900BD4604B080BDC6
:104D2800D8BB002030BE00202FBE002080B584B044
:104D380002AF224B0021180004F052FF031E0BD0D3
:104D480001235B420021180000F0F6FFC0461B4B10
:104D5800180005F048F82DE0194B1800FFF763FF1D
:104D6800031E27D0164B1800FFF71BFF154B1B78A7
:104D7800DBB25A1E9341DBB201225340DBB21A0068
:104D8800FB1D1A701A7801210A401A700D4B012276
:104D98001A700B4B1800FFF727FFFB1D1B78002B21
:104DA80008D0094AFA20800000210123009300233B
:104DB800FFF7DDFEC046BD4602B080BD00BE002044
:104DC800D8BB002030BE0020994A002080B500AF33
:104DD800034B1B781800FDF7C5F9C046BD4680BDDA
:104DE8002FBE0020B0B586B000AF78603960FA23D6
:104DF8009B001800FFF78CFE02000B003C490800DE
:104E080004F047FF03001A0001235340DBB2002BD4
:104E180000D069E000F068F9031E5BD000237B61D5
:104E280053E03A687B69D31A3B61FFF744FF0300FC
:104E3800FB603A69FB689A4201DDFB683B613B69AC
:104E4800002B1ED07B697A68D3183A6911001800C4
:104E5800FFF718FF0300BB6001235B420021180025
:104E680000F06AFFC046FFF71DFF7A69BB68D318D8
:104E78007B61FCF7C3FC02000B001E490A604B6013
:104E880023E001235B420021180000F055FFC046D3
:104E9800FFF708FF00F028F903001A000123534028
:104EA800DBB2002B1BD1FFF706FF031E0DD1FCF769
:104EB800A5FC104B1A685B680F4C002512196B4152
:104EC80099420CD801D1904209D87A693B689A4234
:104ED800A7DB04E00749002200230A604B60044B6B
:104EE800180004F080FF00E0C046BD4606B0B0BD23
:104EF80000BE0020A8B1002020A1070080B584B022
:104F080000AF7860396003235B42FB6000F0ECF887
:104F1800031E3CD0FFF79DFE031E38D0FA239B00EA
:104F28001800FFF7F5FD02000B001B49080004F00C
:104F3800B0FE03001A0001235340DBB2002B02D05D
:104F480003235B4224E000F0CFF8031E14D0FFF7E0
:104F580080FE031E10D03A687B6811001800FFF726
:104F680081FE0300BB60BB68002B01D0BB6801E079
:104F780003235B42FB6006E001235B42002118002B
:104F880000F0DAFEC046044B180004F02CFFFB6862
:104F98001800BD4604B080BD00BE002080B582B0B8
:104FA80000AF0200FB1D1A70074B1B68002B07D0CF
:104FB800054B1868054B1B680022190001F010FD0D
:104FC800C046BD4602B080BD0CB7002010B7002017
:104FD80080B582B000AF78603960054B7A681A6096
:104FE800044B3A681A60C046BD4602B080BDC04650
:104FF8000CB7002010B7002090B585B002AFD023C1
:105008001B061C68FBF7E0FF03001800FCF731FBE8
:1050180003009C4201D0002352E02B4B1B7802F086
:10502800A3FE2A4B1800FBF7ACFCFB1D01221A70EB
:105038000120FDF707FD0300DAB2254B1A70244B57
:105048001B781A00234B19001000FDF7E7F8204BD6
:105058001B7801211800FDF735F80520FDF7A8F8A1
:10506800031E0ED01C4B002219000520FDF7B4F9D1
:10507800FCF780FF0200194B11001800FBF7C4FC75
:1050880013E0174AFA20800000210123009300232F
:10509800FFF76DFD0200FB1DD243D20F1A700F4BB4
:1050A800082200211800FFF76DF9FB1D1B78002B63
:1050B80004D00C4B01211800FFF72AFBFB1D1B78BD
:1050C8001800BD4603B090BDF402001000BE0020D9
:1050D8002FBE0020FD4A00209D4B0020D8BB002099
:1050E800994A002040B0002080B500AFFFF7A8FD26
:1050F80003001800BD4680BD80B500AF014B180005
:10510800BD4680BD70AD002080B582B000AF020002
:10511800FB1D1A70024B1800BD4602B080BDC04688
:1051280084AD002080B584B000AF0200FB1D1A706A
:105138003B1D0A1C1A802C4B1B78002B04D12A4BD0
:105148001121180000F064F8FB1D1B78002B07D113
:10515800264B274A5A800F23FB1801221A702DE08C
:10516800FB1D1B78052B01D9002338E0FB1D1A789D
:10517800204B9200D358BB600F23FB1800221A70F3
:1051880010E00F203B181B78BA68D31819783B1821
:105198001B785A1C154B5200D1523B183A181278FA
:1051A80001321A700F22BB181B78122B06D8BB18B5
:1051B8001B78BA68D3181B78002BE2D10F23FB1891
:1051C8001B789BB201339BB2DB189BB21BB2C02287
:1051D800920013431BB29AB2044B1A80034B180077
:1051E800BD4604B080BDC04618BE002080B7002070
:1051F8000904000004AE002080B500AF034B18007E
:1052080000F053F8C046BD4680BDC046F0BB002044
:1052180080B584B000AF786039600023FB6023E07C
:10522800FB685B08194AD35C1900FB68012213402C
:1052380001D1042300E0002319410B000F22134081
:10524800BB60BB68092B04DCBB68DBB23033DBB264
:1052580003E0BB68DBB23733DBB27968FA688A18D7
:105268001370FB680133FB603B68013BFA689A42A4
:1052780002D2FB680F2BD3D97A68FB68D3180022B7
:105288001A70C046BD4604B080BDC046F0BB0020C1
:1052980080B582B000AF0200BB1D1A80BB1D1B8801
:1052A8001B881800BD4602B080BDB0B58CB000AFF9
:1052B80078601C243B1900221A600433092200215B
:1052C8001800FFF75FF80C257B1900221A600433D9
:1052D800092200211800FFF755F83B194B221A70D4
:1052E80079193B190D22180004F01AFE0023FB62FD
:1052F8000BE0FB6A5A1DFB6A7968CB180C217918F8
:105308008A5C1A70FB6A0133FB62FB6A072BF0DDCB
:10531800C046C046BD460CB0B0BD0FB480B500AFA6
:105328000823FB181B7801225340DBB2002B01D065
:10533800FEF708FCC046BD4680BC08BC04B0184750
:1053480080B500AF024B9B6A1800BD4680BDC046C1
:105358000040054080B582B000AF78607B68034AA2
:1053680053401800BD4602B080BDC0460000105032
:1053780090B587B000AF39601100FB1D021C1A7090
:10538800BB1D0A1C1A700C243B1918000C231A00A8
:105398000021FEF7F7FF21007B18FA1D12781A701A
:1053A8007B1803225A707B183A685A60BB1D1A781A
:1053B8007B181100180005F06DFBC046BD4607B00C
:1053C80090BD000090B585B000AF0200FB1D1A70BB
:1053D8000A217B18FA1D12781A707B181B787F2215
:1053E8001340DAB20F217B181A700B203B18FA1DF4
:1053F80012781A703B181B78DB09DAB20E203B18BA
:105408001A700D243B197A1812781A700C217B181F
:105418003A1812781A703B191A787B181B785200C0
:10542800D3185A01024BD3181800BD4605B090BDD9
:10543800B4B7002080B588B000AF78600A00FB1CC4
:105448001A707B681B8B3B614023FB603A69FB68E1
:10545800D318013BF9681800FEF74AFC03009B01CA
:10546800FB61FB1C1B78022B02D1FB695B00FB6113
:10547800184B1A687B68DA60164B1A68FB69D218F1
:10548800144B1A607B68DB681800FFF763FF0300A2
:10549800BB61104B1B681800FFF75CFF01008023FD
:1054A8005A0100238A425B41DBB21800FFF735FF3F
:1054B800FB1C1B789A06BB69134380221206134310
:1054C8007B617B685B687A691A60C046BD4608B034
:1054D80080BDC046BCBB002090B585B000AF0400BD
:1054E80008001100FB1D221C1A703B1D021C1A80AB
:1054F800BB1D0A1C1A70FB1D1B781800FFF762FF02
:105508000300FB6008217B18FA1D12781A707B18BB
:105518001B787F221340DAB20B203B181A7009213E
:105528007B18FA1D12781A707B181B78DB09DAB21F
:105538000A217B181A70FB68FA1D12789A707B187A
:105548001B785A425341DAB2FB685A70FB68002252
:10555800DA70FB683A1D12881A83FB68BA1D127844
:10556800DA767B181B78012B07D13B181B78DB00F8
:10557800204A9A18FB689A6008E00B23FB181B78EE
:10558800DB0004331B4A9A18FB689A60FB689B6827
:1055980000221A600B23FB181B78002B06D1FB682E
:1055A80000225A60FB68144ADA601FE00A23FB18DD
:1055B8001B78012B09D10B23FB181B78013BDB005F
:1055C8000E4A9A18FB685A6009E00B23FB181B78EF
:1055D800013BDB000433094A9A18FB685A60BB1D7B
:1055E8001A78FB6811001800FFF724FFC046BD4673
:1055F80005B090BD800010500001105008001050F8
:1056080080B584B000AF39601100FB1D021C1A7010
:105618003B1D0A1C1A80FB1D1B781800FFF7D2FEE1
:105628000300FB603B1D1A883968FB68180000F00E
:10563800B7F9C046BD4604B080BD000080B582B051
:1056480000AF0200FB1D1A7000F086F9174B0C2200
:105658009A67174BFF2219000520FCF7BDFE154B72
:10566800402200211800FEF78DFE00224021002074
:10567800FFF732FF002240218020FFF72DFF04F0C2
:1056880091FD0A4B01221A64084B80229205DA64C4
:10569800064A90230849D150FB1D1B78180000F0DA
:1056A8002DF8C046BD4602B080BDC046000011506E
:1056B800E19F0020B4B7002010D0010080B582B06F
:1056C80000AF0200FB1D1A7001210520FCF7FAFC4F
:1056D800C046BD4602B080BD80B582B000AF0200B2
:1056E800FB1D1A70BB1D0A1C1A70002200218020A5
:1056F800FFF786FFC046BD4602B080BD80B582B0C8
:1057080000AF0200FB1D1A70034B80225202DA64BC
:10571800C046BD4602B080BD0020115080B582B0A1
:1057280000AF02003960FB1D1A703B681B781F220E
:105738001340DBB2002B13D13B681B786022134067
:10574800DBB2002B0CD13B685B78052B08D13B689A
:105758009A78DB781B0213439BB2DAB2024B1A60C9
:10576800C046BD4602B080BD0000115080B584B06F
:1057780000AF02003960FB1D1A703B6898783B68DF
:10578800FB60FB681A795B791B0213439BB25B05CC
:105798005B0D99B23B68DB789B079B0FDBB21A0065
:1057A800FFF79AFE01231800BD4604B080BD80B5FE
:1057B80082B000AF0200FB1D1A7004F0F3FCC04673
:1057C800BD4602B080BD90B583B000AF04000800AC
:1057D8003A601900FB1D221C1A70BB1D021C1A70AE
:1057E8003B1D0A1C1A803B1D1A883968BB1D1B7893
:1057F8001800FFF705FF01231800BD4603B090BD50
:1058080080B586B000AF0200FB1D1A70BB1D0A1CD4
:105818001A7013217B18BA1D12781A707B181B781E
:105828007F221340DBB2002B0FD112217B18BA1D47
:1058380012781A707B181B78DB09DBB2012B01D1B7
:10584800012200E002220C4B9A66BB1D1B7818004F
:10585800FFF7B8FD03007B617B69FB6080231B01B8
:10586800BB60BA68FB680021180004F085FEC046DA
:10587800BD4606B080BDC0460020115080B586B038
:1058880000AF0200FB1D1A70BB1D0A1C1A70132101
:105898007B18BA1D12781A707B181B787F22134068
:1058A800DBB2002B15D0BB1D1B781800FFF78AFD53
:1058B80003007B617B690022DA707B69FB608023CF
:1058C8001B01BB60BB68D943FB680022180004F0C9
:1058D80053FEC046BD4606B080BD000080B584B00A
:1058E80000AF7860074BFB607B68BB60FB68802279
:1058F80092011343BA681A60C046C046BD4604B058
:1059080080BDC04600C0004080B584B000AF78605C
:105918000B4BFB607B68BB60FB68C02292011343A2
:10592800BA681A60C04600E0C046054B9B68DB4376
:105938007A681340F8D1C046C046BD4604B080BD61
:1059480000C0004080B500AF024B9B6A1800BD46FE
:1059580080BDC0460040054080B500AF80235B0491
:105968001800FFF7BBFF80235B041800FFF7CCFF8C
:10597800094B9C2200211800FEF704FD80235B01DF
:1059880006481A000021FEF7FDFC034B09225A675E
:10599800C046BD4680BDC0460000115000001050F2
:1059A80080B588B000AFF860B960BB1D1A80FB688D
:1059B800FB610123BB61C046FB689B7E002B03D0C3
:1059C800FB68180004F0C4FDFB68BA1D12889A82AF
:1059D800FB680022DA82FB6801229A76FB68BA68C3
:1059E8001A61FB68180004F0FDFF031E04D00E497D
:1059F800902280239B028B50FB68180005F01EF84C
:105A0800031E03D0FB6801221A7703E0FB68180025
:105A180004F082FEFB687B6101235B423B61C04668
:105A2800C046BD4608B080BD0020115080B586B084
:105A380000AF78607B681B687B61EFF3108372B6F8
:105A48003B613B69FB607B69BB60C046BB681B6808
:105A58005A425341DBB2002BF8D1BFF35F8FC046E7
:105A6800C046C046FA687B685A60C046BD4606B064
:105A780080BD80B586B000AF78607B681A687B68A7
:105A88005B687A613B617B69FB60BFF35F8FC046EF
:105A9800C046FB6800221A60C0463B69BB60BB6811
:105AA80083F31088C046C046C046BD4606B080BDD8
:105AB80080B582B000AF0200FB1D1A70154B002B99
:105AC80016D0154B1B78FA1D12789A4209D2134B3F
