:020000041000EA
:1000000000B5324B212058609868022188439860DF
:10001000D860186158612E4B002199600221596106
:100020000121F02299502B49196001219960352056
:1000300000F044F80222904214D00621196600F024
:1000400034F8196E01211966002018661A6600F04E
:100050002CF8196E196E196E052000F02FF8012189
:100060000842F9D1002199601B49196000215960AB
:100070001A491B48016001219960EB211966A021F2
:10008000196600F012F800219960164914480160C1
:100090000121996001BC002800D000471248134993
:1000A000086003C880F30888084703B5996A0420EC
:1000B0000142FBD001200142F8D103BD02B5186610
:1000C0001866FFF7F2FF186E186E02BD00000240BE
:1000D000000000180000070000035F00212200005C
:1000E000F4000018222000A00001001008ED00E03C
:1000F00000000000000000000000000074B24E7A12
:1001000000200420F7010010C3010010C5010010F9
:10011000C1010010C1010010C1010010C101001097
:10012000C1010010C1010010C1010010C701001081
:10013000C1010010C1010010C9010010CB01001065
:10014000CD010010CD010010CD010010CD01001037
:10015000CD010010CD010010CD010010CD01001027
:10016000CD010010CD010010CD010010CD01001017
:10017000CD010010CD010010CD010010CD01001007
:10018000CD010010CD010010CD010010CD010010F7
:10019000CD010010CD010010CD010010CD010010E7
:1001A000CD010010CD010010CD010010CD010010D7
:1001B000CD010010CD010010CD010010CD010010C7
:1001C00000BE00BE00BE00BE00BE00BEEFF3058054
:1001D000103800BEF2EB8871D8020010F80200104F
:1001E0003402001090A31AE700202249086006C8D4
:1001F00081F30888104720480068002835D10DA4F5
:100200000ECC002902D000F012F8F9E71B491C4A75
:10021000002000E001C19142FCD11A4988471A49E7
:1002200088471A49884700BEFDE701C901C29A42C2
:10023000FBD37047F8020010C0000020FCBB002078
:1002400034BE001000BC0020E8D400201CD70010F1
:1002500000000420000004201CD70010001004201F
:1002600000100420000000007047094800F014F856
:100270000047000008ED00E0000000D0E8D40020B6
:1002800074E200200D390020C5060020233A00202A
:10029000575600000000000001B40248844601BC2B
:1002A000604700BFBF53002005005250DE65F46870
:1002B0001CD70010060052505422A29D08D10020E5
:1002C00006005250861C030214D100200600525032
:0802D000ABB3605330D10020F4
:1002D800A8020010B4020010C002001058D100207B
:1002E800CC02001064D1002070D10020ACD10020D5
:1002F800F8B5C04606480749091A8B10C90FC9182E
:1003080010B5491003D0044B002B00D0984710BDFE
:10031800E8D40020E8D4002000000000054B10B508
:10032800002B03D00449054800E000BFFFF7E2FFB7
:1003380010BDC0460000000000E00020FCBB00200B
:1003480080B582B000AF7860D0231B067A685A6205
:10035800C046BD4602B080BD80B582B000AF7860AF
:10036800D0231B067A689A62C046BD4602B080BD9B
:1003780080B584B000AF78600A00FB1C1A700122B7
:100388007B689A401300FB60FB1C1B78002B04D091
:10039800FB681800FFF7D4FF03E0FB681800FFF7BD
:1003A800DBFFC046BD4604B080BD000080B586B006
:1003B80000AF78600A00FB1C1A700C23FB1810228F
:1003C800BA1814217918786802F0C4FE031E07D001
:1003D8007B693969FA68180002F06CFE01230AE0AB
:1003E800FB1C1B78002B05D07A68054B1100180000
:1003F80003F038FC00231800BD4606B080BDC04697
:1004080078CD002080B582B000AF7860C046BD4688
:1004180002B080BD80B582B000AF7860C046BD46EE
:1004280002B080BD80B584B000AFF860B9607A6072
:10043800FB68DB68064A1A40BB681A437B681B05E1
:100448001A43FB68DA60C046BD4604B080BDC046AA
:10045800E0FF0FFC80B582B000AF786039607B6840
:10046800DB68054A1A403B68DB031A437B68DA609D
:10047800C046BD4602B080BDFF7FF0FF80B582B0A8
:1004880000AF786008001100BB1C021C1A807B1C9E
:100498000A1C1A707B1C1B781A02BB1C1B881B04C5
:1004A8001A437B681A60C046BD4602B080BD000092
:1004B80080B584B000AFF860B9607A60FB685B68AB
:1004C800064A1A40BB68DB011A437B681B031A43C0
:1004D800FB685A60C046BD4604B080BD7F00FEFF81
:1004E80090B585B000AFF860080011007B600B2460
:1004F8003B19021C1A700A23FB180A1C1A70FB68A5
:100508009B68104A1A403B191B78002B02D08023A5
:10051800DB0200E000231A430A23FB181B78002B98
:1005280002D080235B0200E000231A437B68190590
:10053800F8235B040B401A43FB689A60C046BD462B
:1005480005B090BDFFFF0AFE90B585B000AFF8601A
:10055800080011007B600B243B19021C1A700A2347
:10056800FB180A1C1A70FB689B68104A1A403B1952
:100578001B78002B02D080231B0300E000231A43C2
:100588000A23FB181B78002B02D080239B0200E073
:1005980000231A437B685906F8239B050B401A432E
:1005A800FB689A60C046BD4605B090BDFFFFF5C127
:1005B80090B587B000AF786008243B191800102365
:1005C8001A00002105F06AFF3B19002201211800DA
:1005D800FFF754FF3B191F2200211800FFF768FF9F
:1005E8003819202300220121FFF77AFF3819202328
:1005F80000220121FFF7A8FF7B683A1913CA13C329
:1006080012681A607868BD4607B090BD80B582B0A0
:1006180000AF786039607B681800FFF7FBFE7B68E5
:10062800074A934201D1062300E007233A681900DC
:10063800100002F069FEC046BD4602B080BDC0464B
:100648000000205080B584B000AFF860B960FB1D91
:100658001A70FB681800FFF7DDFEBB681800FFF78B
:10066800D1FEFB681B680121BA6891400A00D24399
:100678001A40FB1D1B781900BB6899400B001A43F0
:10068800FB681A60C046BD4604B080BD80B582B024
:1006980000AF786039607B681800FFF7BBFE3B68E5
:1006A8001800FFF7AFFE7B683A6808329200D3580B
:1006B8001800BD4602B080BD80B582B000AF78603A
:1006C80039607B681800FFF7A5FE3B681800FFF744
:1006D80099FE7B685B683A680832012191400A00FC
:1006E80013405A1E9341DBB21800BD4602B080BDCC
:1006F80080B582B000AF786039607B681800FFF77A
:1007080089FE3B681800FFF77DFE00E0C0463A68A6
:100718007B6811001800FFF7CFFF031EF6D13A6877
:100728007B6811001800FFF7B1FF03001800BD46F1
:1007380002B080BD90B587B000AF786039600824FA
:100748003B191800FFF734FF3B6808331A00396873
:100758003B191800FFF7ACFE7B683A1913CA13C39C
:1007680012681A607868BD4607B090BD90B587B02A
:1007780000AF7860396008243B191800FFF718FFAC
:100788003B68DA1D39683B191800FFF791FE7B6852
:100798003A1913CA13C312681A607868BD4607B0BD
:1007A80090BD000090B587B000AF01237B61184B66
:1007B800184A190010000BF00FFA03003B613B00C8
:1007C8003A6911001800FFF7B5FF3B000021180037
:1007D800FFF740FE3B00082210211800FFF722FE19
:1007E8000D4CFF231A0479690A4823000BF01EFAFE
:1007F8003800102300220021FFF772FE3B003A69FF
:10080800796904480BF094FAC046BD4607B090BD1C
:10081800C4CD002000002050FFFFFF0080B586B047
:1008280000AF00237B61174B174A190010000BF02B
:10083800D3F903003B613B003A6911001800FFF748
:1008480095FF3B0010211800FFF704FE3B00102223
:1008580000211800FFF7E6FD0C4B0D4A79690A489C
:100868000BF0E4F93800082300220021FFF738FED6
:100878003B003A69796904480BF05AFAC046BD460C
:1008880006B080BDDCCD002000002050FFFFFF0037
:10089800FFFF000080B582B000AF00237B6008E056
:1008A8007B68094A19001000FFF7B0FE7B68013326
:1008B8007B607B68172BF3DDFFF774FFFFF7AEFF54
:1008C800C046BD4602B080BD0000205080B500AFD4
:1008D800074B012200211800FFF7B4FE044B012248
:1008E80001211800FFF7AEFEC046BD4680BDC046D8
:1008F8000000205090B587B000AF06F080F80023C4
:100908007B610BE07B69180002F034FD7B690621EE
:10091800180002F0F9FC7B6901337B617B690F2BBE
:10092800F0DD10233B610BE03B69180002F022FD6B
:100938003B6900211800FFF71BFD3B6901333B6150
:100948003B69172BF0DD1A4BFB60FB680B22BC18C8
:1009580000211800FFF72AFD03002370182002F079
:1009680009FD00211820FFF703FD1A2002F002FDFF
:1009780000211A20FFF7FCFC1B2002F0FBFC0021E1
:100988001B20FFF7F5FCFFF785FFFFF79FFF00230C
:100998007B60C046074B01211800FFF7A9FE030042
:1009A8007B607A68044B1100180006F011F8F0E734
:1009B800100F040000002050ACCD002080B584B09A
:1009C80000AF786039603B68FB60FB68054A944675
:1009D80063449B001A007B681A60C046BD4604B099
:1009E80080BDC0464000003480B582B000AF38609A
:1009F80079603A687B6810001900BD4602B080BD76
:100A080080B584B000AFF8603A607B60F9683A68F6
:100A18007B680A604B60C046BD4604B080BD80B5A7
:100A280082B000AF00F09AFF02000B003900080006
:100A3800FFF7E6FF3A687B6810001900BD4602B070
:100A480080BD0000B0B58AB000AFB860F9607A60C8
:100A5800BA68FB6810001900FFF7C6FF02000B0018
:100A6800BA61FB617B681C0000231D00FA2292001A
:100A780000232000290005F073FC02000B00100081
:100A88001900BA69FB6912184B413A627B623A6AEB
:100A98007B6A002B04DA01225242084B3A627B62DD
:100AA8003A6A7B6A102179180800FFF7A9FF3A69AA
:100AB8007B6910001900BD460AB0B0BDFFFFFF7F7B
:100AC80080B582B000AF7860FFF7A9FF7B681A0095
:100AD800FFF7B8FF02000B0010001900BD4602B076
:100AE80080BD90B583B000AF78607C6801F0F2FA01
:100AF800030019002000FFF761FF7B68FF221A71CD
:100B0800BFF35F8FC046C046C046BD4603B090BD28
:100B180090B583B000AF78607C6801F0DBFA030021
:100B280019002000FFF74AFF7B68FF221A717B68D3
:100B380000225A71BFF35F8FC046C046C046BD460B
:100B480003B090BD80B582B000AF7860012001F09D
:100B5800D9FA03001A007B681100180000F004F8A5
:100B6800C046BD4602B080BD80B584B000AF786095
:100B780039603B68FB60FB68074A944663449B0006
:100B88001A007B681A60BFF35F8FC046C046C04634
:100B9800BD4604B080BDC0464000003480B582B078
:100BA80000AF386079603A687B6810001900BD466C
:100BB80002B080BD80B584B000AFF8603A607B6059
:100BC800F9683A687B680A604B60C046BD4604B065
:100BD80080BD0000B0B586B000AF386079603A6873
:100BE8007B6810001900FFF7D9FF02000B003A617B
:100BF8007B617B691C0000231D002300FB600D4BFB
:100C08005B6ABB60BA68FB689A420AD3094B9A6A66
:100C18003B699A4203D2BA68FB689A4201D0012321
:100C280000E000231A1C01231340DBB21800BD4664
:100C380006B0B0BD0040054080B582B000AF00F0FE
:100C48008DFE02000B0039000800FFF7B3FF3A6879
:100C58007B6810001900BD4602B080BD80B58AB01F
:100C680000AFB860F9603A607B60BA68FB68100052
:100C78001900FFF793FF02000B00BA61FB61B86926
:100C8800F9693A687B6812184B413A627B623A6AA2
:100C98007B6A002B04DA01225242084B3A627B62DB
:100CA8003A6A7B6A102179180800FFF783FF3A69CE
:100CB8007B6910001900BD460AB080BDFFFFFF7FA9
:100CC800B0B584B000AFB860F9603A607B603A684C
:100CD8007B6810001900FFF761FF04000D00BA6877
:100CE800FB6810001900FFF759FF02000B00A41A57
:100CF8009D4122002B0010001900BD4604B0B0BD74
:100D080080B588B004AFB860F9607A603B6000F0E5
:100D18000BFABA68FB6818217918097802913968C2
:100D280001917968009100F01FFC03001800BD468E
:100D380004B080BD80B582B000AF786000F0F4F9EF
:100D480002007B681900100000F0C9FC03001800BD
:100D5800BD4602B080BD80B582B000AF78600A00A1
:100D6800FB1C1A707B681968FB1C1A7813005B005F
:100D78009B18033BCB181800BD4602B080BD80B558
:100D880084B000AF786008001100FB1C021C1A70C8
:100D9800BB1C0A1C1A70FB1C1A787B68110018000F
:100DA800FFF7D9FF0300FB60BB1C1A787B681100B2
:100DB8001800FFF7D0FF0300BB60BB68FA1C12786D
:100DC8009A70FB681B78002B04D1FB68BA1C127858
:100DD8001A7007E0FB681A78BB685A70FB68BA1C7F
:100DE80012781A70C046BD4604B080BD90B583B075
:100DF80000AF786008001100FB1C021C1A70BB1CB5
:100E08000A1C1A70FB1C1B78002B02D1BB1C1B7818
:100E180027E0BB1C1B78002B02D1FB1C1B7820E0B1
:100E28007B685C687B689868BB1C1A78FB1C1B781D
:100E38001900A047031E0AD0BB1C1A78FB1C19789E
:100E48007B681800FFF79BFFFB1C1B7809E0FB1C65
:100E58001A78BB1C19787B681800FFF790FFBB1C39
:100E68001B781800BD4603B090BD80B584B000AFB4
:100E780078607B689B7B002B01D1002326E00F2143
:100E88007B187A68927B1A707B181A787B68110035
:100E98001800FFF760FF0300BB60BB685A787B68E7
:100EA8009A737B689B7B002B02D17B680022DA73E4
:100EB800BB6800229A70BB689A78BB685A70BB6896
:100EC8005A78BB681A700F23FB181B781800BD46A8
:100ED80004B080BD80B584B000AF78600A00FB1C08
:100EE8001A70FB1C1A787B6811001800FFF733FF93
:100EF8000300FB60FB6800229A70FB689A78FB6825
:100F08005A70FB685A78FB681A707B68597BFB1C1F
:100F18001A787B681800FFF769FF03001A007B68DE
:100F28005A737B685B7B1800BD4604B080BD80B5F2
:100F380082B000AF78607B685B7B1800BD4602B06A
:100F480080BD80B582B000AF78600A00FB1C1A70C3
:100F58007B685B7BFA1C12789A420AD0FB1C1A78D1
:100F68007B6811001800FFF7F6FE03009B78002B42
:100F780001D0012300E000231A1C01231340DBB237
:100F88001800BD4602B080BD80B582B000AF786061
:100F98000A00FB1C1A707B68DB7B002B0AD07B687D
:100FA800DA7B7B6811001800FFF7D5FE0200FB1CF6
:100FB8001B7853707B689B7B002B03D17B68FA1CE2
:100FC80012789A737B68FA1C1278DA73C046BD46A9
:100FD80002B080BD80B500AF034B5B685A1E9341D9
:100FE800DBB21800BD4680BDF8D3002080B582B0C2
:100FF80000AF78600A00FB1C1A707B689A68FB1CBB
:101008001B7804498C4663441B01D3181800BD465D
:1010180002B080BDFFFFFF0F80B582B000AF7860DF
:101028000A00FB1C1A707B68DA68FB1C1B78013B02
:10103800D3181800BD4602B080BDB0B584B000AF6B
:10104800786008001100FB1C021C1A70BB1C0A1CEB
:101058001A707B68FB60FB1C1A78FB68110018008B
:10106800FFF7C4FF03001A685B6810001900FFF758
:1010780095FD04000D00BB1C1A78FB6811001800D0
:10108800FFF7B4FF03001A685B6810001900FFF748
:1010980085FD02000B000121AB4204D801D1A24218
:1010A80001D80023191CCBB21800BD4604B0B0BD4E
:1010B80080B582B000AF0200FB1D1A70BB1D0A1C70
:1010C8001A70FB1D1B781A02BB1D1B7813431800EE
:1010D800BD4602B080BD000080B500AFFFF77AFFC3
:1010E80003001A0001235340DBB2002B0ED00B4B38
:1010F80018680A4B0A4A102101F016FE032000F076
:1011080017FC064B0321180000F0FAF9054B0A21D9
:101118001800FFF753FCC046BD4680BDF8D3002039
:101128000B0E00203CE2002080B500AF014B1800F8
:10113800BD4680BDF8D30020F0B589B000AFF86097
:101148003A607B60382208215318DB191B78002B82
:1011580006D01F23FB185218D21912781A7008E00B
:10116800FB681B681F22BC181800FFF77EFE0300EF
:1011780023701F257B191B78002B4BD07B191A78FD
:10118800FB6811001800FFF731FF0300BB61B96964
:101198003A687B680A604B60BB69BA6B9A60BB6946
:1011A800FA6BDA60FB681A687B191B781900100063
:1011B800FFF790FE03001A007B191B78934229D190
:1011C800FB681B7D19001726BC193A687B68080064
:1011D80000F036FD03002370BB191B78002B11D0DB
:1011E8003C2308229B18DB191B7801225340DBB2F1
:1011F800002B07D0FB681A687B191B7819001000B0
:1012080001F0CEFEBB6C002B04D0BB6C1722BA18C1
:1012180012781A701F23FB181B781800BD4609B0F6
:10122800F0BD0000B0B5A8B006AF7860B34B7A68DF
:101238009200D358FB66FFF7FFFC02000B003A66EA
:101248007B6600238022BA18136000220023BA6745
:10125800FB6700237B678723FB1800221A70FB6E4D
:101268005B687B64EFF3108372B63B643B6CFB6393
:101278007B6CBB63C046BB6B1B685A425341DBB2F5
:10128800002BF8D1BFF35F8FC046C046C046FB6B4A
:10129800FB65FB6E1B685B257C191800FFF747FE92
:1012A800030023707B191B78002B53D07B191A7805
:1012B800FB6E11001800FFF799FE03007B657B6D3C
:1012C8001A685B68386E796EFFF7FAFC02000B004B
:1012D800002B32DC01D1002A2FD1FB6E1B6853256D
:1012E8007C190021180001F039FE030023707B6D82
:1012F8001A685B68BA67FB677B6D9B688022BA18BF
:1013080013607B6DDB687B675B23FB181A78FB6EC9
:1013180011001800FFF780FE020073217B18127875
:101328001A707B191A787B181B7811001800FFF7C0
:10133800BFFE0200FB6E1A610CE07B6D1A685B68E9
:101348007968080000F07CFC031E03D08723FB1893
:1013580001221A70FB6E5B687B63FB6D3B637B6BE2
:10136800FB62BFF35F8FC046C046FB6A00221A606B
:10137800C0463B6BBB62BB6A83F31088C046C0465D
:1013880080243B191B68002B00D1ACE05B23FB18C1
:101398001A787323FB181B7811001800FFF788FED2
:1013A8007A6F3B191B681100984702000B00BA645A
:1013B800FB64FB6E5B687B62EFF3108372B63B6283
:1013C8003B6AFB617B6ABB61C046BB691B685A42CA
:1013D8005341DBB2002BF8D1BFF35F8FC046C04644
:1013E800C046FB69FB65FB6C002B23DAFB6E1B69AF
:1013F800002B1FD0BA6CFB6C00200021801A994189
:1014080002000B00B86FF96FFFF728FC02000B0011
:10141800F86E00210491012103915B217918097864
:101428000291796F01918021791809680091FFF77D
:1014380083FE3BE0FB6C002B05DCFB6C002B20D112
:10144800BB6C002B1DD0FB6E1B69002B19D0FFF75E
:10145800F3FBBA6CFB6CFFF701FC02000B00F86EA3
:1014680000210491012103915B21791809780291E7
:10147800796F01918021791809680091FFF75CFE66
:1014880014E0FB6E1A685B243B191B7819001000E6
:10149800FFF77AFD3B191A78FB6E11001800FFF769
:1014A800BBFD03001A780132D2B21A70FB6E00221B
:1014B8001A61FB6E5B687B61FB6D3B617B69FB605E
:1014C800BFF35F8FC046C046FB6800221A60C04663
:1014D8003B69BB60BB6883F31088C046C04687235E
:1014E800FB1801221A708723FB181B78002B00D0E9
:1014F800A1E6C046C046BD4622B0B0BD20E00020EF
:1015080080B584B000AF786039603B68180000F09F
:1015180065FC124A3B681100180000F0F7FA00F069
:10152800D9FD0300FB60FB680D4A944663449B00A9
:101538001A007B685A603B68DAB27B681A75D02358
:101548001B061B68DAB27B685A75064B3A6892002C
:101558007968D150C046BD4604B080BDF50F002063
:101568004000003420E00020B0B59AB006AFF86023
:101578003A607B601723FB1800221A704B23FB1874
:1015880000221A70FB685B687B63EFF3108372B606
:101598003B633B6BFB627B6BBB62C046BB6A1B68F1
:1015A8005A425341DBB2002BF8D1BFF35F8FC046DC
:1015B800C046C046FB6A7B6443257C193A687B6851
:1015C800F8681721791804910021039100210291EC
:1015D800796E0191396E0091FFF7AEFD030023701B
:1015E8007B191B78002B0BD07B191A78FB6811002C
:1015F8001800FFF711FD02004B23FB1812781A7030
:10160800FB685B687B627B6C3B627B6AFB61BFF358
:101618005F8FC046C046FB6900221A60C0463B6A1D
:10162800BB61BB6983F31088C046C0464323FB18DF
:101638001B78002B02D101235B424CE01723FB18D7
:101648001B78002B0BD14323FB181A784B23FB186C
:101658001B7811001800FFF72BFD030000E00023A2
:10166800FB641723FB181B78002B33D06823FB1867
:101678001B78002B2ED0796EFA6C3B6E10009847C1
:1016880002000B00BA63FB63BB6BFA6B134302D116
:101698000023FB641EE0FB6B002B10DABA6BFB6BBC
:1016A80000200021801A994102000B0038687968EF
:1016B800FFF7D4FA02000B003A607B605EE7FFF7A1
:1016C800BBFABA6BFB6BFFF7C9FA02000B003A6072
:1016D8007B6053E7FB6C1800BD4614B0B0BDB0B5D5
:1016E8008EB000AF786039603B68002B01D10023D1
:1016F8006BE03723FB1800221A707B685B68BB62BB
:10170800EFF3108372B67B627B6A3B62BB6AFB6154
:10171800C046FB691B685A425341DBB2002BF8D123
:10172800BFF35F8FC046C046C0463B6A3B632F2568
:101738007B193A681A707B681A687B191B7819003C
:101748001000FFF7FEFB031E1ED03B681A0A2E246A
:101758003B191A707B191A787B6811001800FFF77B
:101768005BFC03001B783A1912789A4214D17B6803
:101778001A683723FC187B191B781900100001F030
:101788000FFC0300237007E07B681B693A689A42E4
:1017980002D17B6800221A617B685B68BB613B6B86
:1017A8007B61BB693B61BFF35F8FC046C0463B6945
:1017B80000221A60C0467B69FB60FB6883F31088CF
:1017C800C046C0463723FB181B781800BD460EB02C
:1017D800B0BD80B582B000AF78607B685B7D1800D3
:1017E800BD4602B080BD000080B58CB000AF786007
:1017F80039601C4B1B68BB61EFF3108372B67B61C9
:101808007B693B61BB69FB60C046FB681B685A4249
:101818005341DBB2002BF8D1BFF35F8FC046C046FF
:10182800C0463B69FB620F4B1B68BB62FB6A7B626D
:10183800BB6A3B62BFF35F8FC046C0463B6A00226B
:101848001A60C0467B6AFB61FB6983F31088C04657
:10185800C04640BFC0460022002310001900BD4604
:101868000CB080BD3CE2002080B586B002AF386085
:101878007960EFF30583BB60BB68002B08D0C046D6
:101888003A687B6810001900FFF7A4F9030022E00A
:10189800134A38687968002300930023FFF730FA69
:1018A8000300FB60FB68002B08DCC0463A687B68D5
:1018B80010001900FFF78EF903000CE020BFC046A6
:1018C800FB681800FFF736FA3A687B6810001900C1
:1018D800FFF780F903001800BD4604B080BDC0467C
:1018E800B915002080B582B000AF386079603A68D9
:1018F8007B6810001900BD4602B080BD80B582B07B
:1019080000AF7860C046BD4602B080BD80B582B0E9
:1019180000AF78607B681F221A40044B0121914078
:101928000A001A60C046BD4602B080BD80E200E0F1
:1019380080B582B000AF78607B681800FFF7DEFFE3
:10194800044A7968044B180000F019FBC046BD46EC
:1019580002B080BDE4CD00206CE20020F0B587B075
:1019680000AF154E766A7E61134EB66A3E61124E1E
:10197800766AFE607E69B446FE68B44502D0FE68A9
:101988007E61F1E7C0467E693E6000267E603E6863
:101998003300002632003E69300000263100160070
:1019A800064334000B431D0022002B0010001900D1
:1019B800BD4607B0F0BDC0460040054080B582B0C6
:1019C80000AF78607B681800BD4602B080BD00009B
:1019D80080B590B000AFEFF305833B613B69103BE6
:1019E800BB63BB6B1800FFF789FF0023FB630A2367
:1019F8007B617B693F4A944663449B007B637B6BB6
:101A08007B62EFF3108372B63B623B6AFB617B6AD1
:101A1800BB61C046BB691B685A425341DBB2002B0D
:101A2800F8D1BFF35F8FC046C046C046FB693B6331
:101A3800314B0121BA6B91400A005A630122BB6BFA
:101A48009A4013002D4AFA62BB62FB6AC0229201D7
:101A58001343BA6A1A60C046294B1B781A00BB6B3D
:101A6800DA4013000122134024D0234B5A6A254B35
:101A7800B96B8900CB589A4212D3234BBA6B9200A8
:101A8800D358FB630122BB6B9A401300DBB2DB43E4
:101A9800DBB21B4A12781340DAB2194B1A7009E00C
:101AA800154A1549BB6B04339B009A58BB6B04332A
:101AB8009B005A507B6BFB603B6BBB60FB687B6099
:101AC800BFF35F8FC046C0467B6800221A60C046DD
:101AD800BB683B603B6883F31088C046C046FB6B1D
:101AE800002B03D0BA6BFB6B10009847C046BD466D
:101AF80010B080BD40000034004005403C40054027
:101B080071E2002048E200203CDA002080B590B065
:101B180000AF786039607B681800FFF7EFFE7B68DC
:101B28001800FFF74BFF0300FB630A233B623B6A85
:101B38003E4A944663449B00BB63BB6B3B63EFF335
:101B4800108372B6FB62FB6ABB623B6B7B62C0466A
:101B58007B6A1B685A425341DBB2002BF8D1BFF3B2
:101B68005F8FC046C046C046BB6A7B633B68002B9C
:101B780026D0FB6B180000F0EDFB02002C4B9A42BC
:101B880018D02B4AFB6B1100180000F0F7FBFB6B19
:101B98000121180000F046FB01227B689A401300DF
:101BA800244AFA61BB61FB69802292011343BA6936
:101BB8001A60C046204B7A6892003968D1501CE000
:101BC8001D4B7A6892000021D15001227B689A400F
:101BD8001300DBB2DB43DBB2184A12781340DAB2E7
:101BE800164B1A70124AFB6B1100180000F0F4FD36
:101BF800FB6B0021180000F015FBBB6B7B617B6B56
:101C08003B617B69FB60BFF35F8FC046C046FB68E2
:101C180000221A60C0463B69BB60BB6883F310882A
:101C2800C046C046C046BD4610B080BD4000003426
:101C3800A1170020384005403CDA002071E200205E
:101C4800B0B596B000AFF8603A607B60FFF786FEEB
:101C580002000B00BA64FB643A687B681000190044
:101C6800FFF740FE02000B003A647B647A6CFB6C61
:101C78009A420CD87A6CFB6C9A4203D13A6CBB6CD2
:101C88009A4204D85723FB1801221A7096E057236A
:101C9800FB1800221A700A233B623B6A4B4A94469F
:101CA80063449B00FB63FB6B3B63EFF3108372B6EB
:101CB800FB62FB6ABB623B6B7B62C0467B6A1B684C
:101CC8005A425341DBB2002BF8D1BFF35F8FC046B5
:101CD800C046C046BB6ABB633723FB183C4A127830
:101CE8001A700122FB689A401300DAB2384B1B784D
:101CF8001343DAB2364B1A70364B0121FA68914019
:101D08000A005A6333493A6CFB6804339B005A5003
:101D18007B6C1C0000231D0021002F4BFA689200E9
:101D2800D1502C4B1B6A0121FA6891400A001340DC
:101D38002FD0FFF713FE02000B00796C994228D8C8
:101D4800796C994202D1396C914222D85723FB18F9
:101D580001221A701E4B1B7837243A1912789A42BE
:101D680017D01C4B0121FA6891400A001A62194BDE
:101D78000121FA6891400A005A63FB681800FFF7CE
:101D88001DFE03001800FFF7C1FD114B3A19127828
:101D98001A70FB6BFB61BB6BBB61FB697B61BFF3BB
:101DA8005F8FC046C0467B6900221A60C046BB6987
:101DB8003B613B6983F31088C046C0465723FB1834
:101DC8001B781800BD4616B0B0BDC04640000034B0
:101DD80071E200200040054048E2002080B58EB046
:101DE80000AF78607B681800FFF788FD0A23FB6066
:101DF800FB68254A944663449B007B637B6BFB61CD
:101E0800EFF3108372B6BB61BB697B61FB693B6111
:101E1800C0463B691B685A425341DBB2002BF8D1DC
:101E2800BFF35F8FC046C046C0467B693B63174B14
:101E380001217A6891400A001A6201227B689A405F
:101E48001300DBB2DB43DBB2114A12781340DAB27B
:101E58000F4B1A707B6BFB623B6BBB62FB6A7B624E
:101E6800BFF35F8FC046C0467B6A00221A60C04637
:101E7800BB6A3B623B6A83F31088C046C046C046D3
:101E8800BD460EB080BDC04640000034004005404D
:101E980071E2002080B500AF044B1B68022213409A
:101EA8005A1E9341DBB21800BD4680BD00C00640F3
:101EB80080B586B000AF0B237B607B680F4A9446E1
:101EC80063449B007B61EFF3108372B63B613B690F
:101ED800FB607B69BB60C046BB681B685A425341C4
:101EE800DBB2002BF8D1BFF35F8FC046C046C046B7
:101EF800FB681800BD4606B080BDC04640000034EF
:101F080080B588B000AF78600B23FB60FB680E4A91
:101F1800944663449B00FB617B68BB61FB697B6102
:101F2800BFF35F8FC046C0467B6900221A60C04677
:101F3800BB693B613B6983F31088C046C046C04615
:101F4800BD4608B080BDC0464000003480B582B0B0
:101F580000AF786039603B68DB087A68D3181B7873
:101F680019003B680722134001229A4013000B40D6
:101F78005A1E9341DBB21800BD4602B080BD80B541
:101F880086B000AFF860B9607A60FFF791FF030090
:101F98007B61BA68FB6811001800FFF7D7FF031EC2
:101FA80005D0BA687B681100180001F05BFEBB68B9
:101FB800DB08FA68D3181978BB6807221340012296
:101FC8009A401300DAB2BB68DB08F868C3180A4302
:101FD800D2B21A707B691800FFF792FFC046BD465F
:101FE80006B080BD80B588B000AFF8607A603B600D
:101FF8000B23FB180A1C1A70FFF75AFF03007B61BA
:1020080001235B42FB617B68BB6125E0BA69FB6821
:1020180011001800FFF79AFF03001A00012353402C
:10202800DBB2002B15D0BB69DB08FA68D318197826
:10203800BB690722134001229A401300DAB2BB6938
:10204800DB08F868C3180A43D2B21A70BB69FB618F
:1020580006E0BB690133BB61BA693B689A42D5D9CE
:102068007B691800FFF74CFFFB69002B08DA0B238C
:10207800FB181B78002B03D0BB6A180001F0F2FD97
:10208800FB691800BD4608B080BD000080B584B06B
:1020980000AF0023FB6012E0FB687B607B680C4AA2
:1020A800944663449B00BB60BFF35F8FC046C04645
:1020B800BB6800221A60C046FB680133FB60FB68FE
:1020C8001F2BE9D9C046C046BD4604B080BDC046F6
:1020D8004000003480B582B000AF094B1B785A1C11
:1020E800D1B2074A11707B60054B1B78172B02D9B8
:1020F800034B10221A707B681800BD4602B080BDE1
:1021080010D4002080B584B002AF0200FB1D1A7005
:10211800FB1D19780548064B00931F231822FFF76B
:1021280061FF03001800BD4602B080BD54DB0020EB
:102138003CCE00200FB480B500AF0823FB181B78F5
:1021480001225340DBB2002B01D001F0ABFDC046A9
:10215800BD4680BC08BC04B0184780B582B000AF4B
:102168007860C046BD4602B080BD000080B500AFB3
:10217800014B1800BD4680BD72E2002080B500AF5B
:10218800024B9B681800BD4680BDC04600ED00E0CC
:1021980080B582B000AF78607B68012213431800D5
:1021A800BD4602B080BD80B582B000AF78607B6864
:1021B800012293431800BD4602B080BD80B58AB0A5
:1021C80000AFF860B9607A60FFF7D8FF0200FB68DB
:1021D80010339B00D318BA681A60BFF35F8FC046EC
:1021E80009237B617B690E4A944663449B007B62AA
:1021F8007B683B627B6AFB61BFF35F8FC046C0466A
:10220800FB6900221A60C0463B6ABB61BB6983F365
:102218001088C046C046C046BD460AB080BDC0460C
:102228004000003480B582B000AF78600A00FB1C23
:102238001A707B681800FFF790FF01227B689A40AC
:10224800FB1C1B781900100000F01CF8C046BD46A6
:1022580002B080BD80B582B000AF78607B6818009E
:10226800FFF77BFF01227B689A40054B1B681340F0
:102278005A1E9341DBB21800BD4602B080BDC0466D
:1022880000E100E080B582B000AF78600A00FB1C76
:102298001A70FB1C1B78002B06D0074B7A681A6053
:1022A800064B7A681A6002E0054B7A681A60C046E5
:1022B800BD4602B080BDC04680E200E000E100E01B
:1022C80080E100E080B582B000AF78607B681800DC
:1022D800FFF743FF044B01217A6891400A001A6016
:1022E800C046BD4602B080BD00E200E080B582B0C5
:1022F80000AF78607A68054BD21A2F2100239142EB
:102308005B41DBB21800BD4602B080BD14D400208A
:1023180080B584B000AF78607B681800FFF71DFFB8
:102328007B68180000F016F80300FB60FB68002BC0
:1023380007D0FB681800FFF7D9FF031E01D001235F
:1023480000E000231A1C01231340DBB21800BD462D
:1023580004B080BD80B582B000AF78607B6818009B
:10236800FFF7FBFEFFF70AFF02007B6810339B00B4
:10237800D3181B681800BD4602B080BD80B58AB06E
:1023880000AF786039607B681800FFF7E6FE092324
:10239800BB60BB681F4A944663449B007B627B6AB0
:1023A800BB61EFF3108372B67B617B693B61BB69EC
:1023B800FB60C046FB681B685A425341DBB2002BE6
:1023C800F8D1BFF35F8FC046C046C0463B693B6249
:1023D8007B681800FFF7BEFF0300FB61FA690E4B2C
:1023E8009A4203D0FA693B689A4201D1012300E07E
:1023F80000231A1C01231340DBB21800FFF79AFED2
:102408003A6A39687B681800FFF7D8FEC046BD46AF
:102418000AB080BD40000034CD01001080B586B000
:1024280000AF786039607B687B613B683B613A69E3
:102438007B69D31A043BFB60FB685B101BB25B052E
:102448005B0D1BB2034A13431BB29BB21800BD4677
:1024580006B080BD00E0FFFF80B586B000AF7860B1
:1024680039607B687B613B683B613A697B69D31A59
:10247800043B5B08FB60FB68DB0A9BB25B055B0DFA
:102488009BB2084A13439AB27B681A80FB689AB2D7
:102498007B68023304490A4392B21A80C046BD469B
:1024A80006B080BD00F0FFFF00F8FFFF80B584B0E4
:1024B80000AF78607B681B885B05FB60FB68002BBE
:1024C80002DA074A944663445B15FB60FB680233F3
:1024D8005B007A68D3181800BD4604B080BDC046BA
:1024E800FFFF1F0080B584B000AF78603960084BEB
:1024F800FB603968FA687B685B1A5B415A43120DC6
:10250800FA607B60FB685BB21800BD4604B080BD12
:10251800AAAA000080B582B000AF7860054A7B683F
:1025280011001800FFF7DEFF03001800BD4602B0D7
:1025380080BDC04614D4002090B59BB000AFF860B1
:10254800B960FB1D1A70FB681800FFF706FE092327
:102558007B637B6B974A944663449B00BB65BB6D6A
:102568007B64EFF3108372B63B643B6CFB637B6C5C
:10257800BB63C046BB6B1B685A425341DBB2002B9E
:10258800F8D1BFF35F8FC046C046C046FB6B7B6582
:10259800894B1B785BB2DB43DBB2DB09DBB218008B
:1025A800FFF7C8FD844B1B785BB21A0013005B0071
:1025B8009B189B00814A9B183B654F23FB187E4A5A
:1025C80012781A703B6D06229A567B4B1A70FFF7E9
:1025D800D5FD0200FB6810339B00D3181B687B668F
:1025E8007B6E1800FFF782FE03001A000123534098
:1025F800DBB2002B30D07A6E714BD31A5A4253415A
:10260800DBB21800FFF796FD28243B196D4A1A80A3
:102618003B6D02336C4A11001800FFF7FFFE030000
:102628001A0021007B185A807B18684A9A807B1808
:10263800FF229A717B18FA1D1278DA717B18BA6832
:102648009A603B6D7A1813CA13C33B6D1800FFF7E5
:102658009FFD03007B66A2E000233B667B6E1800AB
:10266800FFF7A1FD0300BB64BB6CFB6511E0FB6DCC
:102678003B66FB6D9B795BB2002B11DBFB6D9B7995
:102688005BB21A0013005B009B189B004B4A9B1817
:10269800FB65FB6DDB79FA1D12789A42E7D300E0FF
:1026A800C0463B6E002B40D01C217B18484A1A803C
:1026B8007B188F22D2015A803B6E9B795BB2002B2C
:1026C8000EDB3B6D1C1D3B6E04331800FFF7EEFE5E
:1026D800030019002000FFF7A1FE03001A0000E024
:1026E8003C4A1C243B199A803B6E06229A563B1999
:1026F8009A713B19FA1D1278DA713B19BA689A6017
:102708003B6E04333A6D11001800FFF787FE030093
:102718001A003B6E9A803B6E4F22BA1812789A7153
:102728003B6D3A1913CA13C339E010243B19254AE3
:102738001A803B6D0233244A11001800FFF76EFE21
:1027480003001A003B195A803B6D0433BA6C110020
:102758001800FFF763FE03001A003B199A80BB6C50
:102768001800FFF7D7FE03001A003B199A713B19AE
:10277800FA1D1278DA713B19BA689A603B6D3A19FA
:1027880013CA13C3BB6C124A1A80BB6C8F22D201C6
:102798005A803B6D1800FFF7FBFC03007B667A6DDF
:1027A800796EFB681800FFF709FDC046BD461BB0EF
:1027B80090BDC046400000346DE2002014D40020D3
:1027C800CD01001000A1FFFF44D4002001BDFFFF90
:1027D8000148000001BD000090B593B000AF7860DB
:1027E80039600923FB60FB68814A944663449B0077
:1027F800BB63BB6BFB61EFF3108372B6BB61BB6954
:102808007B61FB693B61C0463B691B685A42534187
:10281800DBB2002BF8D1BFF35F8FC046C046C0467D
:102828007B697B63FFF7AAFC02007B6810339B007F
:10283800D3181B687B647A6C6E4B9A4200D1CBE04C
:102848007A6C3B689A4200D1C6E07B6C1800FFF7AF
:102858004DFD031E00D1C1E03323FC187B6818002E
:10286800FFF7F8FC030023707B6800211800FFF7CE
:10287800D9FCBFF35F8FC046EFF30583BB60BB682D
:10288800FB62FB6A002B04D07B681033FA6A9A4219
:1028980001D1012300E000231A1C01231340DBB2FD
:1028A8001800FFF747FC00233B647B6C1800FFF718
:1028B8007AFC0300BB62BB6AFB6311E0FB6B3B6401
:1028C800FB6B9B795BB2002B10DBFB6B9B795BB2DC
:1028D8001A0013005B009B189B00474A9B18FB6378
:1028E800FB6B9B683A689A42E8D100E0C046FB6BF4
:1028F8009B683A689A4266D127217B18FA6B9279CD
:102908001A700A00BB181B787F2B38D8BB18002216
:102918009A5613005B009B189B00374A9B183B6232
:102928003B6A9A68FB6B9A603B6ADA79FB6BDA71EF
:102938003B6A06229A56FB6B9A713B6A9B795BB29B
:10294800002B0EDBFB6B1C1D3B6A04331800FFF7E2
:10295800ADFD030019002000FFF760FD03001A0019
:1029680000E0264AFB6B9A80254B00229A563B6A68
:102978009A71234B2722BA1812781A7023E0FB6A3F
:10298800002B19D13B6C002B06D03B6CFF229A71AF
:102998003B6C1C4A9A8001E0164B7B64184B002262
:1029A8009A56FB6B9A71FB6B1800FFF7B3FD030097
:1029B8001A00134B1A7006E0FB6B0433124A11001D
:1029C8001800FFF749FD3323FB181A787B681100BC
:1029D8001800FFF727FC01E0064B7B647A6B796CE3
:1029E8007B681800FFF7EAFBC046BD4613B090BDF0
:1029F80040000034CD01001014D4002001BD0000B7
:102A08006DE2002001BDFFFF4ED4002090B593B0C9
:102A180000AF78607B681800FFF7BAFB03003B64DF
:102A2800EFF30583BB61BB69FB630923FB61FB69AA
:102A3800484A944663449B00BB63BB6BFB62EFF35D
:102A4800108372B6BB62BB6A7B62FB6A3B62C0469C
:102A58003B6A1B685A425341DBB2002BF8D1BFF3E3
:102A68005F8FC046C046C0467B6A7B633323FC1831
:102A78007B681800FFF74EFD03002370FFF77EFB0D
:102A88000200FB6B9B00D3181B683A6C9A4208D172
:102A9800FFF774FB0200FB6B9B00D3182E4A1A60E9
:102AA80035E03223FB1800221A7000237B642BE0E8
:102AB8002A497A6C13005B009B189B00CB180633DD
:102AC8001B785BB23322BA18127852B29A4218D1E4
:102AD80022497A6C13005B009B189B00CB180633C5
:102AE800FF221A701D497A6C13005B009B189B002B
:102AF800CB1804331A4A1A803223FB1801221A70A1
:102B080005E07B6C01337B647B6C032BD0D9154BC0
:102B180000229A567B689A71124B3322BA1812789F
:102B28001A70BB6B7B617B6B3B617B69FB60BFF39E
:102B38005F8FC046C046FB6800221A60C0463B69EA
:102B4800BB60BB6883F31088C046C046C046BD461C
:102B580013B090BD40000034CD01001014D4002003
:102B680001BDFFFF6DE2002080B584B000AF0B4BC4
:102B78007B600B4BFB600023BB6007E0FB681A1D02
:102B8800FA607A681A60BB680133BB60BB68072BC0
:102B9800F4D9C046C046BD4604B080BD8080808060
:102BA80000E400E080B586B002AF0200FB1D1A7099
:102BB800FFF7DCFAFB1D1978094B00930523002267
:102BC800FFF710FA0300FB60FB68002B03DBFB68D0
:102BD8001F22D31AFB60FB681800BD4604B080BDF5
:102BE80074CE002080B582B000AF78600A00FB1C6C
:102BF8001A707B681968FB1C1A7813005B009B1815
:102C0800033BCB181800BD4602B080BD80B584B028
:102C180000AF786008001100FB1C021C1A70BB1C76
:102C28000A1C1A70FB1C1A787B6811001800FFF741
:102C3800D9FF0300FB60BB1C1A787B6811001800E1
:102C4800FFF7D0FF0300BB60BB68FA1C12789A70CC
:102C5800FB681B78002B04D1FB68BA1C12781A7029
:102C680007E0FB681A78BB685A70FB68BA1C1278D0
:102C78001A70C046BD4604B080BD90B583B000AFA1
:102C8800786008001100FB1C021C1A70BB1C0A1C8F
:102C98001A70FB1C1B78002B02D1BB1C1B7827E089
:102CA800BB1C1B78002B02D1FB1C1B7820E07B6827
:102CB8005C687B689868BB1C1A78FB1C1B78190039
:102CC800A047031E0AD0BB1C1A78FB1C19787B6826
:102CD8001800FFF79BFFFB1C1B7809E0FB1C1A7808
:102CE800BB1C19787B681800FFF790FFBB1C1B788A
:102CF8001800BD4603B090BD80B582B000AF7860C3
:102D08007B685B7B1800BD4602B080BD80B582B091
:102D180000AF78607B680121180000F01FF90300FC
:102D28001800BD4602B080BD80B584B000AFF86021
:102D3800B9607A603B60BB68DAB2FB681A73FB68FB
:102D48007A685A60FB683A689A60FB68180000F075
:102D580004F8C046BD4604B080BD90B585B000AF4C
:102D680078607B6800225A737B6801229A737B68BB
:102D78001A7B7B68DA730F23FB1801221A7013E0A1
:102D88000F243B191A787B6811001800FFF72AFFF7
:102D9800020021007B181B780133DBB253707B18CB
:102DA8001A787B1801321A707B681B7B0F22BA18BD
:102DB80012789A42E4D37B681A7B7B68110018006A
:102DC800FFF710FF030000225A70C046BD4605B049
:102DD80090BDF0B585B000AF78600A00FB1C1A7092
:102DE800FB1C1B78002B0AD0FB1C1A787B6811008F
:102DF8001800FFF7F7FE03005B78002B02D1FB1CDD
:102E08001B784AE00F26BB19FA1C12781A70FB1CB3
:102E18001A787B6811001800FFF7E4FE02000E25FF
:102E28007B1952781A707B191A787B681100180080
:102E3800FFF7D8FE02000D23FB1852781A707B1991
:102E48001A787B6811001800FFF7CCFE04000023F5
:102E58006370BB191A787B6811001800FFF7C2FE6F
:102E6800030062785A707B191A78BB1919787B6845
:102E78001800FFF702FF03001C000D23FB181A7847
:102E88007B6811001800FFF7A4FF03001A007B6895
:102E980021001800FFF7F1FE03001800BD4605B039
:102EA800F0BD90B585B000AF786008001100FB1C3C
:102EB800021C1A70BB1C0A1C1A70FB1C1A787B684F
:102EC80011001800FFF78EFE03001A780F23FC1874
:102ED8007B6811001800FFF77CFF03002370BB1C00
:102EE8001B78002B1AD07B68DB7B002B0AD07B6811
:102EF800DA7B7B6811001800FFF774FE0200FB1CE8
:102F08001B7853707B689B7B002B03D17B68FA1C72
:102F180012789A737B68FA1C1278DA730F22BB183E
:102F28001B78002B09D0BB181A787B681100180091
:102F3800FFF758FE030000229A70FB1C1A787B6882
:102F480011001800FFF74EFE030000225A700F23ED
:102F5800FB181B781800BD4605B090BDB0B584B00D
:102F680000AF78600A00FB1C1A700F257C197B687B
:102F78001800FFF7C1FE03002370FB1C1A782C0011
:102F88003B1919787B681800FFF78BFF03001A00BC
:102F98007B685A733B191B781800BD4604B0B0BD56
:102FA800B0B588B000AF78600A00FB1C1A70FB1C33
:102FB8001B78002B01D1002378E07B685B7BFA1C2F
:102FC80012789A4205D17B681800FFF79FFE01230B
:102FD8006CE0FB1C1A787B6811001800FFF702FEF2
:102FE8000300BB61BB699B78002B01D100235DE026
:102FF800BB699A787B6811001800FFF7F3FD03009E
:103008007B617B691B78FA1C12789A4204D1BB69F0
:103018005A787B691A702AE01F23FB187A6912789C
:103028001A701323FB1800221A701F23FB181A7832
:103038007B6811001800FFF7D5FD0300FB60FB68F3
:103048005B78FA1C12789A4208D1BB695A78FB68F7
:103058005A701323FB1801221A7008E01F217B18ED
:10306800FA6852781A707B181B78002BDDD1BB697F
:1030780000229A70BB699A78BB695A700B257C1933
:10308800FB1C19787B6801221800FFF70AFF030070
:1030980023707B68597B7B191A787B681800FFF7C7
:1030A800ECFD03001A007B685A7301231800BD4623
:1030B80008B0B0BD80B588B002AFF860B9607A607A
:1030C800FEF7E8FE03001A0001235340DBB2002B91
:1030D80035D01D4A1C4B0093130001220121052005
:1030E80000F084F9B968FA6818487B6800930B0007
:1030F800012100F07DFBBB687A6853431900F8682A
:1031080002F004FB03007B61114A114B009313008A
:1031180000220221042000F069F97A697B69009392
:10312800130000220121052000F060F9064A064B31
:103138000093130002220021062000F057F9C04630
:10314800BD4606B080BDC046006CDC02008002406F
:10315800001BB70080B58AB000AFF860B9607A602C
:103168003B602D4BBB61A0235B007B624BE07B6A1D
:10317800BA6953437B617B69284A93423FD97B698B
:10318800274A93423BD807233B6234E03B6AFB6102
:103198002BE03B6AFA6953431900786902F0B6FAE2
:1031A80003003B613A69FB689A421BD13B6AFA69A2
:1031B8005A437B691100180002F0A8FA0B1E11D1BE
:1031C8007A6913005B019B1A9B009B18DB001A00AD
:1031D800BB681A607B683A6A1A603B68FA691A60C9
:1031E800012314E0FB69013BFB61FB69002BD0D193
:1031F8003B6A013B3B623B6A002BC7D100E0C046FB
:103208007B6A013B7B627B6A0F2BB0D800231800D6
:10321800BD460AB080BDC046E02E0000AF710B006D
:10322800006A180080B582B000AF7860C046BD461D
:1032380002B080BD80B582B000AF7860D0231B0695
:103248007A685A61C046BD4602B080BD80B582B07A
:1032580000AF7860D0231B067A689A61C046BD46E5
:1032680002B080BD80B584B000AF78600A00FB1C56
:103278001A7001227B689A401300FB60FB1C1B78C4
:10328800002B04D0FB681800FFF7D4FF03E0FB68AD
:103298001800FFF7DBFFC046BD4604B080BD80B50F
:1032A80082B000AF7860D0231B067A685A62C046A5
:1032B800BD4602B080BD80B582B000AF7860D02333
:1032C8001B067A689A62C046BD4602B080BD80B5CA
:1032D80084B000AF78600A00FB1C1A7001227B687A
:1032E8009A401300FB60FB1C1B78002B04D0FB6882
:1032F8001800FFF7D4FF03E0FB681800FFF7DBFFB7
:10330800C046BD4604B080BD80B588B000AF7860C7
:103318000A00FB1C1A707B681800FFF783FF7B68A4
:103328009B00124A94466344FB614023BB61C0235F
:103338007B61FB691A68BB6953407A691340FA6973
:103348003A61FB603B69802252011343FA681A60B4
:10335800C046C0460649FB1C1A787B68DB00CB18C0
:1033680004331A60C046BD4608B080BD04C00140A1
:103378000040014080B582B000AF78607B680021D2
:103388001800FFF7A4FF7B6800211800FFF76AFF09
:103398007B6805211800FFF7B7FFC046BD4602B09D
:1033A80080BD80B582B000AF78607B68033BFDD2FA
:1033B8007B60C046BD4602B080BD80B582B000AF1C
:1033C8000200FB1D1A70FB1D1B78052B03D0FB1D8B
:1033D8001B78042B01D1012300E000231A1C0123D0
:1033E8001340DBB21800BD4602B080BDF0B5A3B0F3
:1033F80000AF3963FA62BB620F2328229B18DA19DF
:10340800031C1370982308229B18DB191A68BB6ADF
:103418009A4201D900230AE1BB6A3B6200237B621E
:103428003A6A7B6A1100090EF96113001B02BB613D
:10343800982308229B18DB191B683B6100237B61DA
:103448003A697B69B869F96902F09EF902000B00D4
:10345800130084203A1813600F2328229B18DB19C5
:103468001A7813005B009B189B00734A94466344C8
:1034780080217A1813607B181B685B683A181268F9
:103488009A4204D97B181B683A1812685A600F23AD
:1034980028229B18DB191B781800FFF78EFF031EE4
:1034A80019D03B6B012B16D18023FB181B68BB6717
:1034B80003237B67BB6FC022920113437A6F1A60A4
:1034C800C04600E0C0468023FB181B689B680122A9
:1034D8001340F7D02CE08023FB181B683B67802340
:1034E8001B01FB663B6FC02292011343FA6E1A6000
:1034F800C0460F2128268B19DB191A784F4B9200EA
:10350800D358002B14D04D4B58698B19DB191A78F6
:103518004A4B9200D358190002F0F8F8030001331F
:10352800FB67FA6F13005B009B181800FFF739FF61
:103538008026BB191A68FB6A5B01BA667B66E023C2
:103548003B66BB6E1A687B6E53403A6E1340BA6E88
:10355800FA65BB65FB6D802252011343BA6D1A6090
:10356800C046C0460F2328229B18DB191B78180079
:10357800FFF723FF031E23D0BB191B687B653B6B3A
:103588003B650323FB647B6D1A683B6D5340FA6C03
:1035980013407A6DBA647B64BB6C8022520113437A
:1035A8007A6C1A60C046C04600E0C0468023FB180B
:1035B8001B689B6801213A6B91400A001340F4D0C4
:1035C80080217B181B683B6480231B01FB633B6CD9
:1035D800802292011343FA6B1A60C0467B181B685D
:1035E80084203A1812685A60BB6ABB600023FB60EB
:1035F800BA68FB6811000D0E13001C023B181B680B
:103608003B6000237B603A687B682000290002F059
:10361800BBF802000B00100019000F2328229B188A
:10362800DB191A780100054B9200D15001231800CC
:10363800BD4623B0F0BDC0460080004058DB0020E6
:1036480080B588B002AF0C2000F048F9FEF722FCE4
:10365800031E11D000237B6107E03F4B7A6992007B
:103668003E49D1507B6901337B617B69092BF4D9D1
:10367800394B3B4A5A626CE03A4B00229A6700F099
:10368800FFF9394B3B610123FB603B69C022920182
:103698001343FA681A60C04600E0C046314B5B6CC1
:1036A800012BFAD1314BBB6003237B60BB68C0227E
:1036B800920113437A681A60C04600E0C046294B5D
:1036C8009B6B012BFAD12A4A2A480223009306232E
:1036D800012100F08DF8284A284805230093052386
:1036E800012100F085F8264A254B0093130000229B
:1036F80002210420FFF77AFE224A224B009313008E
:10370800002201210520FFF771FE144A134B009394
:103718001300002200210720FFF768FE0F4A0F4B15
:1037280000931300002200210820FFF75FFE0B4AD8
:103738000B4B00931300002200210920FFF756FECF
:10374800104A104B00931300002200210620FFF7B7
:103758004DFEBD4606B080BD58DB0020006CDC0283
:103768001BB70000008000403C80004030800040D3
:10377800002F685900800240008C864700C0024034
:10378800001BB7004059730780B584B000AF78605C
:10379800074BFB607B68BB60FB6880229201134388
:1037A800BA681A60C046C046BD4604B080BDC0466F
:1037B80000C0004080B584B000AF78600B4BFB6060
:1037C8007B68BB60FB68C02292011343BA681A6029
:1037D800C04600E0C046054B9B68DB437A6813404F
:1037E800F8D1C046C046BD4604B080BD00C0004008
:1037F80080B58EB000AFF860B9607A603B60B96898
:10380800344801F083FF03007B63796B786801F02B
:103818007DFF03003B633B681A043B6C1B031343A7
:10382800FB62FB681B68002B15DAFB681B683F22EC
:103838001340BA689A420ED1FB689B681B051B0DA2
:103848003A6B9A4207D1FB68DA68EE23DB02134031
:10385800FA6A9A423AD0FB681F4A934202D18023FF
:103868009B0101E080235B01BB62BB6A1800FFF784
:103878008BFFBB6A1800FFF79DFFFB68BA681A60E8
:10388800FB683A6B9A6021237B62FB6804333B62D6
:103898007B6AFB613B6AC02292011343FA691A6092
:1038A800C04600E0C046FB681B68002BFADAFB68DC
:1038B800FA6ADA60FB680433BB6108237B61BB6981
:1038C800C022920113437A691A6000E0C046BD46DF
:1038D8000EB080BD001BB70000C0024080B582B0AA
:1038E80000AF7860044B7A68802189000A43DA6265
:1038F800C046BD4602B080BD0080054080B500AF1F
:10390800034A044B1B685360C046BD4680BDC04691
:1039180000800540F8DF002080B590B000AF7860E7
:103928000A00FB1C1A70344B3B638023DB05FB62E7
:103938003B6BC02292011343FA6A1A60C0462F4BB0
:10394800BB632F4B7B63BB6B8022920113437A6B63
:103958001A60C046E023DB04FB63FB1C1B78002BCA
:103968000AD0254BBB62FB6B7B62BB6A802292014B
:1039780013437A6A1A600AE01F4B3B62FB6BFB61D8
:103988003B6AC02292011343FA691A60C0467B68F9
:10399800002B0BD1184BBB6180231B067B61BB69D5
:1039A8008022920113437A691A6020E07A68130032
:1039B8005B019B1A9B009B181B011A00114B1A6094
:1039C800104B1A6880235B049A4202D30D4B0E4AAF
:1039D8001A60FFF793FF084B3B618023DB05FB6010
:1039E8003B69802292011343FA681A60C046C046B8
:1039F800BD4610B080BDC0460080054008000140AB
:103A0800FCFF0100F8DF0020FFFFFF0080B586B053
:103A180000AFF860B9607A60164B7B618023DB05E4
:103A28003B617B69C022920113433A691A60C04620
:103A3800FB68002B12D0FB6801221343FB600D4B7F
:103A48000D4ADA610B4BFA680C494A401A62094B75
:103A5800BA685A62074BFA689A6202E0054B00227C
:103A6800DA617B6800211800FFF756FFC046BD46A3
:103A780006B080BD00800540D3C007B02D3FF84F89
:103A880080B582B000AF0E4BAA2212011A600C4B0F
:103A98002F22DA600A4B7B600A4B3B607B688022EE
:103AA800920113433A681A60C046C046044B5B68EB
:103AB800002BFBDAC046C046BD4602B080BDC046FA
:103AC8000040024000B0FA0080B500AF00BEC0461A
:103AD800BD4680BD80B584B000AF7860074BFB6001
:103AE8007B68BB60FB68802292011343BA681A6046
:103AF800C046C046BD4604B080BDC04600C00040B8
:103B080080B584B000AF78600B4BFB607B68BB600E
:103B1800FB68C02292011343BA681A60C04600E0ED
:103B2800C046054B9B68DB437A681340F8D1C04612
:103B3800C046BD4604B080BD00C0004080B586B018
:103B480000AF344B1800FFF7C5FF334B1800FFF7E1
:103B5800D7FF324B7B6105E07B691B6898477B691F
:103B680004337B617A692E4B9A42F5D3FFF768FDDF
:103B78002C4B1800FFF7C4FF2B4BBB604023BA68DF
:103B88009367BA685367BA681367BA68D366274BEE
:103B98003B6116E03B691B68002B09D03B693B6021
:103BA8003B681800FCF7B4FF3B6808333B6108E04A
:103BB8003B697B607B681800FCF793FF7B680833E0
:103BC8003B613A691A4B9A42E4D31A4B9B681A0034
:103BD800194B18001100C0231A0002F065FC154BA0
:103BE800154A9A60FEF752FAFEF7BEFFFDF774FA1F
:103BF800124BFB6005E0FB681B689847FB680433C1
:103C0800FB60FA680E4B9A42F5D3C046C046BD46E3
:103C180006B080BDBFCDFBFEFE7F3C00D0D40020A7
:103C2800E0D40020FFFFFF0100F00140C0D40020D5
:103C3800D0D4002000ED00E000000020E0D40020F7
:103C4800E8D4002080B582B000AF7860FFF73CFF71
:103C5800FCE780B582B000AF78607B681800FFF79A
:103C6800F1FF00000FB480B582B000AF0B4B180015
:103C780002F0C2FD3B69002B0CD01423FB187B60BB
:103C88007A683B691100180001F072FC044B1800B7
:103C980002F0B2FD0120FFF7D5FFC046E4CE0020B8
:103CA800F4CE002080B500AF014B1800FFF7DAFF13
:103CB800F8CE002080B584B000AFB9607A603B6070
:103CC8000F23FB18021C1A70C046BD4604B080BD05
:103CD80080B584B000AFB9607A603B600F217B1873
:103CE800021C1A7008007B181B78002B07D0BB68D1
:103CF8001A68BB6859683B181B7818009047C0467B
:103D0800BD4604B080BD80B584B000AF786039602E
:103D18007B68FB6002E0FB680133FB60FB681B7893
:103D2800002B04D03B685A1E3A60002BF3D1FA6886
:103D38007B68D31A1800BD4604B080BD80B582B038
:103D480000AF0200FB1D1A70FB1D1B782F2B05D935
:103D5800FB1D1B78392B01D8012300E000231A1C16
:103D680001231340DBB21800BD4602B080BD80B508
:103D780084B000AF78600023FB600EE0FA6813009F
:103D88009B009B185B0018007B681B68591C7A68AD
:103D980011601B78C318303BFB607B681B681B787D
:103DA8001800FFF7CBFF031EE8D1FB681800BD46DB
:103DB80004B080BD90B587B000AFF860B9607A6094
:103DC8003B607B683B617B6B0222134024D17B6B99
:103DD8000122134020D1FB6A7B610AE07A68531CF8
:103DE8007B603B68B968FC682020A0477B69013389
:103DF8007B617A693B6B9A42F0D30DE0FB6A013B29
:103E0800FB62BA6AFB6AD31818787A68531C7B601D
:103E18003B68B968FC68A047FB6A002BEED17B6B56
:103E2800022213400ED007E07A68531C7B603B687F
:103E3800B968FC682020A0477A683B69D31A3A6BB6
:103E48009A42F1D87B681800BD4607B090BD90B57E
:103E580089B004AFF860B9607A603B60BB6B02223E
:103E6800134034D17B6B002B17D0BB6B012213405E
:103E780013D02823FB181B78002B03D1BB6B0C2213
:103E880013400AD07B6B013B7B6306E07B6A5A1CBC
:103E98007A623A6AD31830221A707A6A3B6B9A426D
:103EA8000AD27B6A1F2BF1D906E07B6A5A1C7A6218
:103EB8003A6AD31830221A70BB6B0122134006D01D
:103EC8007A6A7B6B9A4202D27B6A1F2BEDD9BB6B55
:103ED8001022134056D0BA6B8023DB00134016D152
:103EE8007B6A002B13D07A6A3B6B9A4203D07A6ABA
:103EF8007B6B9A420BD17B6A013B7B627B6A002B0E
:103F080005D0FB6A102B02D17B6A013B7B62FB6AFE
:103F1800102B0ED1BB6B202213400AD17B6A1F2BBA
:103F280007D87B6A5A1C7A623A6AD31878221A70C0
:103F38001EE0FB6A102B0ED1BB6B202213400AD067
:103F48007B6A1F2B07D87B6A5A1C7A623A6AD31895
:103F580058221A700CE0FB6A022B09D17B6A1F2BCE
:103F680006D87B6A5A1C7A623A6AD31862221A7097
:103F78007B6A1F2B06D87B6A5A1C7A623A6AD31866
:103F880030221A707B6A1F2B23D82823FB181B7832
:103F9800002B07D07B6A5A1C7A623A6AD3182D2202
:103FA8001A7016E0BB6B0422134007D07B6A5A1CB8
:103FB8007A623A6AD3182B221A700AE0BB6B08227D
:103FC800134006D07B6A5A1C7A623A6AD3182022B8
:103FD8001A703C687A68B968F868BB6B03937B6BA6
:103FE80002937B6A01933B6A00932300FFF7E2FE8A
:103FF80003001800BD4605B090BD90B597B008AF56
:10400800F860B9607A603B6000237B63BB6C002B6F
:1040180003D1FB6D10229343FB65FA6D8023DB000F
:10402800134002D0BB6C002B33D0BB6C396D180029
:1040380001F06CFB0B001A0033217B181A700A0080
:10404800BB181B78092B04D8BB181B783033DAB29D
:104058000DE0FB6D2022134001D0412300E06123D5
:104068003322BA1812789B18DBB20A3BDAB27B6BA0
:10407800591C796310217918CA54396DB86C01F04C
:1040880045FB0300BB64BB6C002B02D07B6B1F2B72
:10409800CBD93C687A68B968F868FB6D0693BB6D44
:1040A80005937B6D04933B6D03934C23FB181B789E
:1040B80002937B6B01931023FB1800932300FFF7F7
:1040C800C6FE03001800BD460FB090BDB0B596B04F
:1040D80008AFF860B9607A603B6000237B63BB6C13
:1040E800FA6C134303D1BB6E10229343BB66BA6EBE
:1040F8008023DB00134003D0BB6CFA6C13433AD027
:10410800B86CF96CBA6DFB6D01F03EFB100019003C
:1041180033243B19021C1A702200BB181B78092B88
:1041280004D8BB181B783033DAB20DE0BB6E2022FE
:10413800134001D0412300E061233322BA181278DA
:104148009B18DBB20A3BDAB27B6B591C79631021EE
:104158007918CA54BA6DFB6DB86CF96C01F014FB90
:1041680002000B00BA64FB64BB6CFA6C134302D008
:104178007B6B1F2BC4D9BB6D3D687C68B968F86838
:10418800BA6E06927A6E05923A6E049203935023A1
:10419800FB181B7802937B6B01931023FB18009389
:1041A8002B002200FFF753FE03001800BD460EB097
:1041B800B0BD0000F0B59DB006AFF860B9607A6098
:1041C8003B6000237B6500220023BA63FB633A6FE0
:1041D8007B6F386F796F01F05AFD031E12D03C686F
:1041E8007A68B968F8688023FB181B680393FB6F2B
:1041F800029303230193C54B00932300FFF7DAFDD5
:1042080003001DE201225242C14B386F796F01F061
:104218002BFD031E12D03C687A68B968F8688023C1
:10422800FB181B680393FB6F029304230193B94B9C
:1042380000932300FFF7BEFD030001E20122524272
:10424800B54B386F796F01F01DFD031E24D0802314
:10425800FB181B680422134001D0B04B00E0B04BA0
:104268008022BA18126804210A4001D0042200E012
:1042780003223E687D68BC68F8688021791809685F
:104288000391F96F02910192009333002A002100F3
:10429800FFF790FD0300D3E10022A24B386F796F3E
:1042A80001F0F0FC031E07D100229F4B386F796F95
:1042B80001F0DAFC031E15D03D687C68B968F8681F
:1042C8008023FB181B680493FB6F0393BB6F029357
:1042D8003A6F7B6F009201932B00220000F0B4F933
:1042E8000300ADE153243B1900221A700022002379
:1042F800386F796F01F0B8FC031E0CD03B1901220E
:104308001A703A6F7B6F0020002101F03AFC02001E
:104318000B003A677B678023FB181A688023DB0051
:1043280013400CD10623BB6709E07B6D5A1C7A65E4
:104338001022BA183021D154BB6F013BBB677B6D8B
:104348001F2B02D8BB6F092BEFD8386F796F01F09C
:10435800C9FC0300FB64F86C01F0ACFC02000B0024
:10436800386F796F01F00DFC02000B001000190086
:104378006E4ABB6FDB00D3181A685B6801F031FC2A
:1043880002000B003A637B63386B796B01F0CEFC5B
:104398000300BB64B86C01F089FC02000B00386BA9
:1043A800796B01F0EEFB02000B00BA63FB6300229D
:1043B8005F4BB86BF96B01F065FC031E15D0BB6C45
:1043C8000133BB64B86C01F071FC584ABB6FDB0069
:1043D800D3181A685B6801F04DFC031E17D0002340
:1043E800BB64FB6C0133FB6411E00022504BB86BDB
:1043F800F96B01F039FC031E09D1BB6C002B03D00B
:10440800BB6C0122134002D0BB6C0133BB64BB6F91
:10441800002B3BD1F86C01F04DFC02000B00386F0B
:10442800796F01F0AEFB02000B00BA63FB63012356
:104438001C1C00223E4BB86BF96B01F015FC031EE7
:1044480001D100231C1CE3B201225340DBB2002B34
:1044580000D188E001231C1C0022354BB86BF96B96
:1044680001F010FC031E01D100231C1CE3B2012241
:104478005340DBB2002B00D175E0FB6C01221340E6
:1044880000D170E0FB6C0133FB646CE0BB6F7B64B4
:104498001BE07B6C013B7B64BB6C0A21180001F0BC
:1044A80035F90B00DAB27B6D591C79653032D1B21F
:1044B8001022BA18D154BB6C0A21180001F026F951
:1044C8000300BB64BB6C002B03D07B6D1F2BE0D9B2
:1044D80008E0C04606E07B6D5A1C7A651022BA18BF
:1044E8003021D1547B6D1F2B04D87B6C5A1E7A6403
:1044F800002BF0D17B6D1F2B35D87B6D5A1C7A654C
:104508001022BA182E21D1542DE0C04604CF002025
:10451800FFFFEFFF08CF0020FFFFEF7F10CF002045
:1045280018CF002065CDCD4165CDCDC1B8D00020D4
:104538000000E03FFB6C0A21180001F0BFF80B00F7
:10454800DAB27B6D591C79653032D1B21022BA18B3
:10455800D154FB6C0A21180001F0B0F80300FB6489
:10456800FB6C002B03D07B6D1F2BE3D900E0C0460A
:1045780080217B181B680222134023D17B181B68FB
:10458800012213401ED0FB6F002B14D05323FB18BD
:104598001B78002B04D17B181B680C2213400AD00F
:1045A800FB6F013BFB6706E07B6D5A1C7A651022A6
:1045B800BA183021D1547A6DFB6F9A4202D27B6DC2
:1045C8001F2BF1D97B6D1F2B27D85323FB181B7882
:1045D800002B07D07B6D5A1C7A651022BA182D2142
:1045E800D1541AE08023FB181B680422134007D01B
:1045F8007B6D5A1C7A651022BA182B21D1540CE015
:104608008023FB181B680822134006D07B6D5A1CB8
:104618007A651022BA182021D1543C687A68B968A2
:10462800F8688023FB181B680393FB6F02937B6D6C
:1046380001931023FB1800932300FFF7BBFB030033
:104648001800BD4617B0F0BDF0B5A7B006AF786446
:104658003964FA63BB639826BB191A685B68B91991
:104668000868496801F013FB031E13D10122524266
:10467800D94BB9190868496801F004FB031E09D130
:1046880001225242D54BB9190868496801F0ECFA81
:10469800031E1BD0BD6BFC6B396C786CA823FB1810
:1046A8001B680493A423FB181B680393A023FB181F
:1046B8001B6802939823FB181A685B6800920193A1
:1046C8002B002200FFF776FD030081E23B2338220E
:1046D8009B18DE190123FB73002200239821791807
:1046E8000868496801F0C0FA031E01D10023FB7372
:1046F800FB7B33703B2338229B18DB191B78002B7C
:104708000FD098217B181B683B609C23FB181A6804
:1047180080231B0653407B603A687B6879180A60DF
:104728004B60A823FB181A688023DB00134003D1D1
:104738000623A022BA1813609826BB191A685B686A
:10474800BA64FB64BA6CFB6C1100194300D108E130
:10475800BA6CFB6C1B0DBB620023FB62BB6A5B057A
:104768005B0D9F4A94466344FB66BA6CFB6C002160
:104778001000884304001B031D0B002323433B62E6
:10478800984B2B437B623B6A7C6ABB64FC64F86E83
:1047980001F090FA944A954B01F023FA02000B00BD
:1047A80010001900924A934B01F0F4F902000B0033
:1047B80014001D00B86CF96C00228F4B01F0E1F970
:1047C80002000B00100019008C4A8D4B01F009FA09
:1047D80002000B002000290001F0DCF902000B00A8
:1047E8001000190001F07EFA0300FB67F86F01F072
:1047F80061FA844A844B01F0F4F902000B001000BE
:1048080019000022814B01F0C5F902000B001000CD
:10481800190001F067FA0300FB66F86F01F04AFA25
:104828007B4A7C4B01F0DDF902000B0014001D00EF
:10483800F86E01F03FFA784A784B01F0D2F902009D
:104848000B002000290001F09CF902000B003A66D9
:104858007B663A6E7B6E386E796E01F0C2F90200A3
:104868000B00BA65FB65FB6E6D4A94466344BB61F9
:10487800DB17FB61BB691B057B6100233B613B695F
:104888007C69BB64FC64BC6CFD6C386E796E02009C
:104898000B0001F07FF902000B00BA62FB623A6E6E
:1048A8007B6E00208021C90501F06BF902000B0026
:1048B8003A627B6200225B4BB86DF96D01F073F9C7
:1048C80002000B00100019000022574B01F062F99A
:1048D80002000B00B86DF96D01F065F902000B00DC
:1048E800100019000022514B01F054F902000B008E
:1048F800B86DF96D01F057F902000B00386A796A52
:1049080001F048F902000B00B86AF96A01F04BF9A6
:1049180002000B00100019000022324B01F03AF996
:1049280002000B002000290001F05BF902000B00D7
:10493800BA64FB64BA6CFB6CB9190868496801F081
:1049480093F9031E0FD0FB6F013BFB67B86CF96C42
:104958000022354B01F027F902000B00BA64FB6412
:1049680001E00023FB67FB6F632B04DCFB6F633301
:1049780001DB042300E00523BB67A823FB181A68A2
:1049880080231B01134000D17AE0BA6CFB6C110044
:10499800194312D0264A274B9824391908684968C0
:1049A80001F068F9031E5AD00022234B3919086810
:1049B800496801F059F9031E51D0A0217B181B68E2
:1049C800FA6F9A423ADA7B181A68FB6FD31A013BDE
:1049D8007A18136036E0C046FFFFEF7FFFFFEFFF56
:1049E80001FCFFFF0000F03FFB799F501344D33FC9
:1049F800B3C8608B288AC63F0000F83F61436F63E5
:104A0800A787D23F71A379094F930A400000E03F7E
:104A18001655B5BBB16B0240EF39FAFE422EE63FA0
:104A2800FF03000000002C40000024400000184054
:104A38002D431CEBE2361A3F80842E410023A0222E
:104A4800BA181360A8217B181B688022D200134370
:104A58007A1813600023BB670023FB6710E0A021CE
:104A68007B181B68002B0BD0A823FB181A6880231F
:104A7800DB00134004D07B181B68013B7A181360D5
:104A8800A422BB181B687B67BB181A68BB6F9A42C5
:104A980004D97A6FBB6FD31A7B6701E000237B6769
:104AA800A823FB181B680222134004D0BB6F002BFD
:104AB80001D000237B67FB6F002B0CD0BA6CFB6C1A
:104AC800982439190868496801F06DF802000B004C
:104AD80039190A604B60FB6B7B653B2338229B18B6
:104AE800DB191B78002B0BD09823FB181B683B6342
:104AF8009C23FB181B68802212065A407A6305E043
:104B08009823FB185C681B683B637C63A823FA182E
:104B18001368314A1340BC6BFA6B396C786C049398
:104B28007B6F0393A0257D192B6802933D6B7E6BE9
:104B3800009501962300FFF73DFB0300FB63BB6F65
:104B4800002B44D0A823FB181B682022134001D057
:104B5800452000E06520FA6B531CFB63BB6B396C86
:104B68007C6CA047FB6FDA179B1853409C46FB6F81
:104B7800DB0FDBB2BA6F013ABD6BFC6B396C786C3A
:104B8800052605960492002203920A2202920193B6
:104B9800634600932B002200FFF72FFA0300FB6304
:104BA800A823FB181B680222134010D007E0FA6BF9
:104BB800531CFB63BB6B396C7C6C2020A047FA6BE1
:104BC8007B6DD31AA422BA1812689A42EFD8FB6BED
:104BD8001800BD4621B0F0BDFFF7FFFFF0B5C6468F
:104BE80000B5A6B00AAF78623962FA61BB61B24B10
:104BF800B24A1A600023FB653B6A002B01D000F023
:104C080054FCAF4B7B6200F050FCBB691B78252B32
:104C18000DD0BB691878FA6D531CFB65FB69396ABE
:104C28007C6AA047BB690133BB6100F03EFCBB69ED
:104C38000133BB610023FB66BB691B78203B102B4B
:104C480036D89A009F4BD3181B689F46FB6E0122EB
:104C58001343FB66BB690133BB6101233B662AE052
:104C6800FB6E02221343FB66BB690133BB61012360
:104C78003B6620E0FB6E04221343FB66BB690133ED
:104C8800BB6101233B6616E0FB6E08221343FB66FB
:104C9800BB690133BB6101233B660CE0FB6E10224C
:104CA8001343FB66BB690133BB6101233B6602E02A
:104CB80000233B66C0463B6E002BBDD10023BB667C
:104CC800BB691B781800FFF739F8031E07D01823B3
:104CD800FB181800FFF74BF80300BB661CE0BB6924
:104CE8001B782A2B18D18823FB181B681A1D8821CA
:104CF80079180A601B68BB64BB6C002B07DAFB6E73
:104D080002221343FB66BB6C5B42BB6601E0BB6CD3
:104D1800BB66BB690133BB6100237B66BB691B783B
:104D28002E2B2BD1FB6E8022D2001343FB66BB696E
:104D38000133BB61BB691B781800FEF7FFFF031E38
:104D480007D01823FB181800FFF711F803007B663B
:104D580014E0BB691B782A2B10D18823FB181B6829
:104D68001A1D882179180A601B687B647B6C002BEC
:104D780000DA00237B66BB690133BB61BB691B7822
:104D8800683B122B47D89A004F4BD3181B689F4695
:104D9800FB6E802252001343FB66BB690133BB6183
:104DA800BB691B786C2B38D1FB6E802292001343B1
:104DB800FB66BB690133BB612FE0FB6E80221343A6
:104DC800FB66BB690133BB61BB691B78682B26D1C5
:104DD800FB6E40221343FB66BB690133BB611EE0D7
:104DE800FB6E802252001343FB66BB690133BB6133
:104DF80016E0FB6E802292001343FB66BB69013309
:104E0800BB610DE0FB6E802252001343FB66BB6959
:104E18000133BB6104E0C04602E0C04600E0C04682
:104E2800BB691B78672B28DC252B1DDA30E3693B2F
:104E380001229A401300254A1A40511E8A41D2B2D3
:104E4800002A20D180221A40511E8A41D2B2002A5B
:104E580000D0B8E28022D20013405A1E9341DBB240
:104E6800002B00D049E213E3253B422B00D90FE386
:104E78009A00174BD3181B689F46782B00DD07E371
:104E8800692BD4DA04E3BB691B78782B03D0BB69A0
:104E98001B78582B02D11023BB6521E0BB691B7816
:104EA8006F2B02D10823BB651AE0BB691B78622B04
:104EB80010D10223BB6513E0F4DF0020AD490020C8
:104EC800853A00201CCF002060CF002041900000D0
:104ED800ACCF00200A23BB65FB6E10229343FB6610
:104EE800BB691B78582B03D1FB6E20221343FB664A
:104EF800BB691B78692B07D0BB691B78642B03D06F
:104F0800FB6E0C229343FB66FA6E8023DB00134092
:104F180003D0FB6E01229343FB66BB691B78692BA8
:104F280004D0BB691B78642B00D0AFE0FA6E8023F5
:104F38009B0013403DD08823FB181B6807330722CA
:104F480093431A000832882179180A601A685B6846
:104F5800BA62FB62BA6AFB6A002B05DA00200021FC
:104F6800801A994102000B0010001900FB6ADB0F40
:104F7800DAB2BB6D3B6100237B61FB699C46FE6D29
:104F88003D6A7B6A9846FB6E0893BB6E07937B6EFF
:104F980006933B697C690493059402920090019101
:104FA8006346320029004046FFF790F80300FB658E
:104FB800FAE0FA6E80235B00134025D08823FB18A3
:104FC8001B681A1D882179180A601B687B637B6B34
:104FD800DA179B1853401E007B6BDB0FDAB2FD69B2
:104FE800FC6D396A786AFB6E0593BB6E04937B6E21
:104FF8000393BB6D0293019200962B002200FEF7EB
:10500800FCFF0300FB65CFE0FB6E4022134009D094
:105018008823FB181B681A1D882179180A601B68E9
:10502800DBB215E0FB6E8022134009D08823FB1801
:105038001B681A1D882179180A601B681BB207E0D3
:105048008823FB181B681A1D882179180A601B68B9
:10505800BB63BB6BDA179B1853401E00BB6BDB0F9F
:10506800DAB2FD69FC6D396A786AFB6E0593BB6E2E
:1050780004937B6E0393BB6D0293019200962B0001
:105088002200FEF7BAFF0300FB658DE0FA6E80236D
:105098009B0013402BD08823FB181B68073307227B
:1050A80093431A000832882179180A6018685968E9
:1050B800BB6DBB600023FB60FE69FA6D3D6A7B6ACD
:1050C8009C46FB6E0893BB6E07937B6E0693BB688A
:1050D800FC68049305940023029300900191330027
:1050E80029006046FEF7F2FF0300FB655CE0FA6EFC
:1050F80080235B0013401DD08823FB181B681A1DF2
:10510800882179180A601B68FD69FC6D396A786A1C
:10511800FA6E0592BA6E04927A6E0392BA6D029292
:105128000022019200932B002200FEF766FF030085
:10513800FB6539E0FB6E4022134009D08823FB1839
:105148001B681A1D882179180A601B68DBB215E0F4
:10515800FB6E8022134009D08823FB181B681A1D98
:10516800882179180A601B689BB207E08823FB181E
:105178001B681A1D882179180A601B68FB63FC6983
:10518800FA6D396A786AFB6E0593BB6E04937B6E81
:105198000393BB6D029300230193FB6B00932300E1
:1051A800FEF72BFF0300FB65BB690133BB617CE1A4
:1051B800BB691B78462B03D1FB6E20221343FB6689
:1051C8008823FB181B680733072293431A00083209
:1051D800882179180A601A685B68FE69FD6D3C6A67
:1051E800786AF96E0491B96E0391796E0291009212
:1051F800019333002A002100FEF7DCFF0300FB6562
:10520800BB690133BB6150E1BB691B78672B03D0D5
:10521800BB691B78472B04D1FB6E80221201134314
:10522800FB66BB691B78452B03D0BB691B78472BF2
:1052380003D1FB6E20221343FB668823FB181B68EF
:105248000733072293431A000832882179180A6025
:105258001A685B68FE69FD6D3C6A786AF96E0491AC
:10526800B96E0391796E02910092019333002A007E
:105278002100FFF7E9F90300FB65BB690133BB6156
:1052880013E101237B65FB6E022213400ED107E078
:10529800FA6D531CFB65FB69396A7C6A2020A047BC
:1052A8007B6D5A1C7A65BA6E9A42F1D88823FB182E
:1052B8001B681A1D882179180A601B68D8B2FA6D14
:1052C800531CFB65FB69396A7C6AA047FB6E0222A6
:1052D80013400ED007E0FA6D531CFB65FB69396A71
:1052E8007C6A2020A0477B6D5A1C7A65BA6E9A4268
:1052F800F1D8BB690133BB61D7E08823FB181B6871
:105308001A1D882179180A601B683B657B6E002B83
:1053180001D07B6E01E001235B423A6D1900100059
:10532800FEF7F1FC0300FB64FA6E8023DB001340F8
:1053380005D0FA6C7B6E934200D91300FB64FB6EB8
:10534800022213401AD107E0FA6D531CFB65FB6972
:10535800396A7C6A2020A047FB6C5A1CFA64BA6E32
:105368009A42F1D80AE03B6D5A1C3A651878FA6DF2
:10537800531CFB65FB69396A7C6AA0473B6D1B7847
:10538800002B09D0FA6E8023DB001340EBD07B6E34
:105398005A1E7A66002BE6D1FB6E022213400ED00D
:1053A80007E0FA6D531CFB65FB69396A7C6A2020AB
:1053B800A047FB6C5A1CFA64BA6E9A42F1D8BB69D2
:1053C8000133BB6171E00823BB66FB6E21221343E6
:1053D800FB662B211823CB18DB1900221A7018231F
:1053E800CB18DB191B78002B25D08823FB181B68EA
:1053F8001A1D882179180A601B683B6000237B60AE
:10540800FD69FC6D396A786AFB6E0893BB6E079379
:105418007B6E0693102200230492059300230293C7
:105428003A687B68009201932B002200FEF74EFE3B
:105438000300FB651CE08823FB181B681A1D8821E4
:1054480079180A601B681D00FC69FA6D396A786A68
:10545800FB6E0593BB6E04937B6E0393102302933C
:105468000023019300952300FEF7C7FD0300FB65A9
:10547800BB690133BB6118E0FA6D531CFB65FB691E
:10548800396A7C6A2520A047BB690133BB610CE0FF
:10549800BB691878FA6D531CFB65FB69396A7C6A2D
:1054A800A047BB690133BB61C046BB691B78002BB1
:1054B80001D0FFF7AAFBFA6DFB699A4202D3FB6998
:1054C8005A1E00E0FA6DFB69396A7C6A0020A04721
:1054D800FB6D1800BD461CB080BCB846F0BDC04688
:1054E80090B589B002AFF860B9607A603B6010216E
:1054F8007B18FA681A607B18BA685A607C680123BE
:105508005A42791805483B6800932300FFF766FB69
:1055180003001800BD4607B090BDC046A13A002060
:1055280080B582B000AF0200FB1D1A70FB1D1B780E
:10553800180001F04DF9C046BD4602B080BD80B5E7
:1055480084B000AFB9607A603B600F217B18021C01
:105558001A700A00BB181B78002B04D0BB181B78E4
:105568001800FFF7DDFFC046BD4604B080BD00004F
:10557800B0B586B002AF786039600D4B1B68002B60
:105588000DD00B4B1C687D6801235A420C23F91877
:1055980008483B6800932B00A047012304E07B6880
:1055A800180001F029F900231800BD4604B0B0BD69
:1055B800F4DF00200F53002001480421014B184755
:1055C80060D4002023540020014B9B68184700003A
:1055D80060D4002080B582B000AF0200BB1D1A80E5
:1055E800BB1D1B881B881800BD4602B080BD80B556
:1055F80086B000AF78607B687B611820FFF7EAFF10
:1056080003003B611420FFF7E5FF0300FB607969A5
:10561800FA683B691000984703001800BD4606B0B9
:1056280080BD80B584B000AF78601820FFF7D2FF46
:105638000300FB601620FFF7CDFF0300BB6079680D
:10564800BA68FB681000984703001800BD4604B00C
:1056580080BD80B584B000AF786039600F23FB1837
:1056680001221A700023BB601CE0BB689B007A68AB
:10567800D3181B681800FFF7BAFF0100BB689B002E
:105688007A68D3180A001A60BB689B007A68D31836
:105698001B68002B03D10F23FB1800221A70BB686C
:1056A8000133BB60BA683B689A42DED30F23FB180C
:1056B8001B781800BD4604B080BD0000124A936FE5
:1056C8009B0815D29066D166002905D0FFE7FFE751
:1056D800FFE7516F106F704704B580210906C217A4
:1056E8005140002800D0C84306F06EFB002104BDDD
:1056F800F0B5146E556E576F166FFFF7E3FF14661B
:10570800556657671667F0BD000000D0114A936FC1
:105718009B0813D210665166002905D0FFE7FFE702
:10572800FFE7516F106F704704B5002801D00020C3
:10573800C04306F049FB002104BDC046F0B5146E15
:10574800556E576F166FFFF7E5FF14665566576776
:105758001667F0BD000000D094464A4A926F92083E
:10576800624601D228E0C046F0B5464E346E756EEA
:10577800776F366F00F020F89446424A14665566F3
:10578800576716676246F0BD94463E4A926F920884
:10579800624601D254E0C046F0B53A4E346E756E9A
:1057A800776F366F00F04CF89446364A14665566A3
:1057B800576716676246F0BD002B24DB11D000291D
:1057C8003EDA00B5C943404200D1013100F038F853
:1057D800C943404200D10131DB43524200D1013379
:1057E80000BD002AEBD1002801D1002905D00020F6
:1057F800C90FC90701D1C043410800B506F0E4FA52
:105808000022002300BD00B500290ADBDB43524219
:1058180000D1013300F014F8C943404200D10131EE
:1058280000BDC943404200D10131DB43524200D19F
:10583800013300F005F8DB43524200D1013300BDCB
:10584800002923D1002B18D1002A0CD0BC460D4FBB
:1058580038667A6600210023FFE7FFE7FFE77A6FE3
:10586800386F67467047002801D00748010000B527
:1058780006F0AAFA0022002300BD02000B00002057
:1058880000217047000000D0FFFFFFFF002B00D071
:10589800BFE0130C28D1002AE7D080B4114F396635
:1058A8007A66FFE7FFE730B4040C7B6F396F1B049F
:1058B80023433B667A66FFE7FFE7FFE7C04684B20B
:1058C8007B6F3D6F1B0423433B667A66FFE7FFE768
:1058D800C04600232C042D0C7A6F386F00196941DB
:1058E800B0BC7047000000D0F0B594460025140EF7
:1058F80001D112020835140F01D112010435940F99
:1059080001D192000235D40F01D152000135D40BD8
:105918000134254F7C66254C3C660E0C93B2FFE79C
:10592800FFE7FFE73C6F6643360C7703BE467343D9
:10593800DF0B5B04C01AB941130C7343DB18C91A97
:10594800CE086643360CB64493B273431F0F1B014F
:10595800C01AB941130C73431F0B1B05C01AB94178
:10596800860D8F023E436643360C092D24DB520A0E
:105978007243801A7703460A6643360C16235B1B6C
:10598800DE40DF40BF1964466643821B704604351B
:1059980006330100D940A840C01900D30131A24202
:1059A80006D20023F0BD0000000000D0FFFFFFFF7B
:1059B800121B0130F3D3F1E709277F1BFE40644631
:1059C800A2B27243801A00D20139220C7243130C1E
:1059D8001204821A99410B007046043513370100EE
:1059E800F940A840801900D30131002B02D1A2420E
:1059F8000AD2F0BD013000D30131121BFAD2013BAB
:105A0800F8D1A24200D2F0BD013000D30131121BFF
:105A1800F7E7F0B51C0C00D080E00CB400251C0A98
:105A280004D11B02160E3343120208351C0B04D195
:105A38001B01160F3343120104359C0B04D19B0044
:105A4800960F334392000235DC0B02D192185B416A
:105A580001351C00971864410134464F7C66464C5A
:105A68003C660E0CFFE7FFE7FFE7C0463C6F664366
:105A7800360C7703BE4697B27743C01B00D2013974
:105A8800C01B00D201399FB27743C91BC91B170C31
:105A980077437E04FF0B801BB941CE086643360C62
:105AA8000C2D33DBB644120B1F053A431B0B97B280
:105AB8007743C01B00D201399FB27743C91B170C2B
:105AC80077433E043F0C801BB941860D8F023E434D
